:020000040800F2
:10000000680A00203502000817310008A52E0008F4
:10001000153100082F1C000885360008000000007C
:100020000000000000000000000000006B3100082C
:100030005B1C000800000000693100086D310008F9
:100040004F0200084F0200084F0200084F0200084C
:100050004F0200084F0200084F0200084F0200083C
:100060004F0200084F0200084F0200084F0200082C
:100070004F0200084F0200084F0200084F0200081C
:100080004F0200084F0200084F0200084F0200080C
:100090004F0200084F0200084F0200084F020008FC
:1000A0004F0200084F0200084F0200084F020008EC
:1000B0004F0200084F0200084F0200084F020008DC
:1000C0004F0200084F0200084F0200084F020008CC
:1000D0004F0200084F0200086D360008793600080C
:1000E0004F0200084F0200084F02000800F002F81B
:1000F00000F090F80AA090E8000C82448344AAF132
:100100000107DA4501D100F085F8AFF2090EBAE82F
:100110000F0013F0010F18BFFB1A43F0010318473B
:10012000B8510000D8510000103A24BF78C878C1F7
:10013000FAD8520724BF30C830C144BF04680C60ED
:10014000704700000023002400250026103A28BF35
:1001500078C1FBD8520728BF30C148BF0B60704739
:100160006E2900F08F81702900F0D982662905F090
:100170001C80652905F01980672905F01680612922
:1001800005F0158003681B0A28BF41F0800169292A
:1001900000F03C81642900F03981752900F0368136
:1001A0006F2900F06682782900F0A582E92900F025
:1001B0000182E42900F0FE81F52900F0FB81EF299E
:1001C00000F06382F82900F0A4820368DB0928BFED
:1001D00041F08001632900F0C987732900F0CE87C0
:1001E000E32900F0D987F32900F0DE87002070476B
:1001F0001FB501F049F804000020002104F0CEFCF6
:10020000401C60600020002104F0B2FCE0601FBDD3
:1002100010B510BD01F00AF81146FFF7E9FF04F030
:10022000B3F801F0E7F803B4FFF7F2FF03BC01F005
:100230002FF900000948804709480047FEE7FEE71C
:10024000FEE7FEE7FEE7FEE7FEE7FEE7FEE7FEE786
:1002500004480549054A064B70470000CF310008A5
:10026000ED00000868040020680A002068060020ED
:10027000680600207CB51D4616460C00009001D093
:100280002044401E074B7B442A4669460190304675
:1002900000F011F905461CB10020694600F01EF976
:1002A00028467CBD5D020000014A00F007BB00004B
:1002B0002400002010B5431C02E010F8011B71B1AE
:1002C0008107FAD14FF0013202C88C1A8C4314EA2C
:1002D000C211F9D0C01A0A0603D0C01E10BDC01A40
:1002E00010BD0A0401D0801E10BD0902FCD0401EC2
:1002F00010BD4FF0000200B51346944696462039D3
:1003000022BFA0E80C50A0E80C50B1F12001BFF4CE
:10031000F7AF090728BFA0E80C5048BF0CC05DF834
:1003200004EB890028BF40F8042B08BF704748BF82
:1003300020F8022B11F0804F18BF00F8012B7047F6
:1003400070477047704770B5044685690068C106FC
:1003500001D5302600E02026C00707D070BDD4E9C3
:10036000012130469047206A401C20626D1EF6D560
:1003700070BD70B5044685690078C00707D170BDAF
:10038000D4E9012120209047206A401C20626D1E84
:10039000F6D570BD09684A0501D540B27047C90558
:1003A000FCD500B2704709684A0501D5C0B2704754
:1003B000C905FCD580B2704770B50C460546012AC8
:1003C00005D02878800600D5EA69002302E00123E1
:1003D00005E05B1C934202D2E05C0028F9D1A869D9
:1003E000E618C01AA861286A184428622846FFF750
:1003F000AAFF04E0D5E9012114F8010B9047B442AB
:10040000F8D32846FFF7B5FF70BD00002DE9F04195
:100410000646002410687529314616A510D0FFF74E
:10042000B9FF002802DA404213A507E031688A07C5
:1004300001D512A502E0490704D511A5012401E068
:10044000FFF7B1FF00210A2206F1240709E0B0FB03
:10045000F2FCB0FBF2F302FB1C003030785418467B
:10046000491C0028F3D123462A463046BDE8F04116
:1004700000F08BBA000000002D0000002B000000EF
:100480002000000011680268006A530501D5087059
:100490000AE0D30501D5088006E0130603D5C2178C
:1004A000C1E9000200E008600120704701694A1CB0
:1004B00002610878704700B58FB0CDE901310021A5
:1004C000059105497944CDE903101146684600F0CD
:1004D00031F90FB000BD0000E5FFFFFF0A6802F828
:1004E000010B0A607047D1E900239A4202D2531CE3
:1004F0000B601070704700002DE9FF5F15468A46BB
:100500000446DFF8AC80F8440027D8E900103E46E6
:10051000CDE9001010E03AF816106A4602A800F083
:1005200047FE411C07D02178890603D5E2693918B6
:1005300091420DD80744761C2078800602D5E069E8
:10054000B84205DDAE42E6DB3AF816000028E2D1FB
:10055000A069C01BA0612046FFF7F5FED8E9001096
:10056000CDE90010002017E03AF818106A4602A8FA
:1005700000F01EFEB0F1FF3F81460BD000250DF1CB
:10058000080B05E0D4E901211BF8050090476D1C1C
:100590004D45F7D308F10100B0428046E4DB206A04
:1005A000384420622046FFF7E4FEBDE8FF9F0000CC
:1005B000D24C00002DE9F0418046D21D22F0070206
:1005C0000025D2E90002F52915A614D0011E72F10A
:1005D000000106DA0023D0EB030063EB020211A650
:1005E00008E0D8F800108B0701D50FA602E04907F4
:1005F00001D50EA601251146002408F1240704E0C8
:1006000000F07EF930323A55641C50EA0102F7D10D
:100610002B46324621464046BDE8F04100F0B5B9D0
:10062000000000002D0000002B0000002000000052
:1006300030B4002100F1240408E002F00705D208DC
:10064000303542EA4372DB086554491C52EA03051F
:10065000F3D10468002310A2250707D5A40600D40F
:1006600021B1C46901230DA2641EC46130BC00F035
:100670008CB910B5044621461068FFF794FE024677
:100680002046BDE810400023D2E7D21D22F007012A
:10069000D1E90023CCE7000000000000300000009A
:1006A000F0B40D460188090502D5214C7C4402E0D6
:1006B0001F4C7C440E34002100F1240608E002F0B7
:1006C0000F071209E75D42EA03721B097754491CC0
:1006D00052EA0307F3D102780023120704D5702DE4
:1006E00006D009B1022311342246F0BC00F04DB906
:1006F00001231034F8E770B504460D462146106812
:10070000FFF751FE024629462046BDE8704000230F
:10071000C6E7D21D22F00703D3E90023C0E7036830
:10072000126843F0200303600823C3610023B7E786
:10073000344B00002DE9F05F894604464FF0000A73
:10074000DFF874B1FB44C0F820A02046E168884778
:10075000002874D0252806D0D4E901219047206ACA
:10076000401C2062F1E700265F462046E16888478A
:100770002028054607DB312D05D2781910F8200C0A
:1007800008B10643F1E7B00701D526F00406C4F826
:100790001CA00027C4F818A02A2D09D0284602F072
:1007A00096FF38B304EB8708303DC8F8185019E0BD
:1007B00059F8041B204604EB87029161E1688847E1
:1007C000012F054618D1E069002820DA26F020061E
:1007D0001DE0D8F8180000EB800005EB4000303831
:1007E000C8F818002046E1688847054602F06FFF08
:1007F0000028EED1012F0AD02E2D08D12046E16825
:1008000088477F1C0546022F46F02006C4DBA069FE
:10081000002803DA404246F00106A061F00701D04B
:1008200026F010066C2D0BD0682D09D04C2D39D038
:100830006A2D35D0742D35D07A2D33D016E038E0BE
:10084000E1682F4620468847B842054609D16C2FFB
:1008500026D04FF48060E16806432046884705466D
:1008600004E06C2F1AD04FF4807006430DB3A5F14D
:100870004100192802D8203546F400664A46294628
:10088000204626604E46FFF76BFC80B101280BD056
:10089000F61D26F0070000F1080956E74020E4E7BE
:1008A0008020D8E70020D6E706F104094DE7284666
:1008B00052E7206ABDE8F09FC44A00002DE9F041EC
:1008C00015460E46040002D12C6804B90BA420463C
:1008D00000F09EFC0444207870B12746314638462B
:1008E00000F086FC0444207810B1002004F8010BCD
:1008F00038462C60BDE8F0810027F9E700000000D1
:1009000030B5B0F10A024FEA900E71F100034EEAE1
:10091000817EB0EB0E0061EB91014FEA101E4EEAB2
:10092000017E10EB0E0041EB11114FEA102E4EEA42
:10093000016E10EB0E0041EB11214FEA104E4EEA12
:10094000014E10EB0E0041EB1141401841F1000146
:100950004FEAD00040EA41704FEAD10110EB800528
:100960004FEA810444EA907444EB01046D1944EBAE
:100970000404521BA3414FF0000348BF0A3200D5C4
:1009800030BD401C41F1000130BD2DE9F0470D465E
:1009900099469246044600F124080168880604D569
:1009A000E06921F01001216000E00120A84201DD92
:1009B000471B00E00027A1697A1902EB0900081A19
:1009C000A0612078C00602D42046FFF7BCFC0026B8
:1009D00008E0D4E901211AF806009047206A401C7B
:1009E000761C20624E45F4DB2078C0060AD52046EE
:1009F000FFF7A9FC06E0D4E9012130209047206AE6
:100A0000401C2062381EA7F10107F4DC07E0D4E99E
:100A1000012118F805009047206A401C2062281E1A
:100A2000A5F10105F3DC2046FFF7A3FC20780006C2
:100A300002D50220BDE8F0870120FBE770472DE9D1
:100A4000FF4F0C461E464FF0FF378BB0D2E9000136
:100A5000DDF860800A908A46C1F30A5505B93D4623
:100A6000002108464FF00000BAF1000F00F44000EA
:100A700005DA00EB80004FF4400101EA50004FEA34
:100A80009059B9F1010F00DDB9460A9850EA4A00C1
:100A90000ED044F61050A5F2FF3545432F14B8F19F
:100AA000000F1ED07542291E1EDDC9F100021CE098
:100AB000B8F1010F4FF0000001D0302103E0F24304
:100AC00005E02154401CB042FBDB304600220021EF
:100AD00021540B99C1F80880C1E900200FB0BDE88E
:100AE000F08FBD1B6D1CDEE74A4600DA694206A89E
:100AF00000F00EFC06AB93E8070003AB83E80700A9
:100B000050460A9900F0CBFC8DE80700A0F5005094
:100B10001F3800900398002D0ADD42F21F014A465B
:100B20000844002303A90390684600F034FF09E05D
:100B3000A0F500504A461F38002303A903906846D9
:100B400000F03EFF8DE807000004000C03D04FF0DA
:100B5000FF30410800E01046B8F1000F03D000223A
:100B6000009215461EE0751E05D4FFF7C9FE30320F
:100B700062556D1EF9D5B3460122084302D000220A
:100B80007F1C04E02078302801D100227F1E002A3B
:100B9000099784D01DE0112D07DAFFF7B1FE30323E
:100BA00062556D1C50EA0102F5D1084302D000984D
:100BB000C8B10EE00021681E05E0235C625C63544E
:100BC0002254401E491C8142F7DBAB46A81B401E45
:100BD0000990002004F80B000B98099AC0F80880CF
:100BE000C0E9002B7AE711264FF0000857E72DE9FE
:100BF000F04F88460446D21D22F0070191B0D1E99A
:100C00000001CDE90A0102F03EFD02460B98C00F3B
:100C100001D02D2007E02068810701D52B2002E0BC
:100C2000202101EAC000032A099001D0072A05DB30
:100C300003464146204600F02BFB0BE1207880065E
:100C400001D5E06900E00620B8F1650F814606D0C5
:100C5000B8F1660F18D0B8F1670F70D131E00020FD
:100C6000B9F1110F009001DB112301E009F101033B
:100C70000AAA01A90CA8FFF7E2FEDDE90C70002624
:100C800009F10105834647E001204B4600904FF0F3
:100C900000470AAA01A90CA8FFF7D1FEDDE90DB0B3
:100CA0000C995D46002610B909F101000D18B9EB49
:100CB000050003D4C0F1FF3609F10105A5EB0900D9
:100CC0002BE0B9F1010F01DA4FF001090020B9F171
:100CD000110F0090484601DD112300E003460AAAE7
:100CE00001A90CA8FFF7ABFEDDE90C704D4600260C
:100CF0008346207800070AD4AB4500DA5D4601A898
:100D0000012D04DD411911F8011C302907D04F4590
:100D100002DA17F1040F04DA012082460FE06D1E9B
:100D2000EEE7002F02DCED1B3E4403E0781CA842F6
:100D300000DD7D1CB81B00F1010A4FF00047207850
:100D4000000703D4AA4501DB4FF0FF3A0021B7F1B9
:100D5000004F0DF143088DF8431024D002202B23BF
:100D6000002F01DA7F422D230A21021EA0F101008B
:100D700000DC5FB197FBF1FC97FBF1F201FB1C7CFF
:100D800017460CF1300C08F801CDEEE7A8F1010090
:100D900003702188090501D5452100E06521A0F1F6
:100DA000010800F8011C09980FA9A1EB0807FF1D15
:100DB00000B10120411901EBEA70A1693844081A19
:100DC000401EA0612078C00602D42046FFF7BBFA7F
:100DD000099828B1D4E901219047206A401C20627B
:100DE0002078C00622D52046FFF7ADFA1EE0002E7F
:100DF00004DBB34502DD01A8805D00E03020D4E9CA
:100E000001219047206A401C2062761CAAF1010053
:100E10005FEA000A0AD100F037FAC0680168405C56
:100E2000D4E901219047206A401C2062281EA5F1C8
:100E30000105DCDC07E0D4E9012118F8010B90473B
:100E4000206A401C2062381EA7F10107F3DC20460F
:100E5000FFF78FFA032011B041E600002DE9F04FB3
:100E600004460D46D21D22F0070089B0D0E9009754
:100E70004846394602F007FC0246F80F01D02D2300
:100E800007E02068810701D52B2302E0202101EA39
:100E9000C0038DF820300BB1012000E00020032AB0
:100EA000824601D0072A04DB2946204600F0F0F9EB
:100EB0003FE12078800601D40D2500E0E569C7F305
:100EC0000A560D2D49DA00214FEA175B08464FF00C
:100ED0000000002F00F4400007DA00EB80004FF420
:100EE000400100EBD07001EA60008115012901DDAD
:100EF0004FF0FF3100224FEA850CBCF1180F06D3EA
:100F00001346ACF118004FF08052C24003E04FF49A
:100F1000801323FA0CF30CF10C0CBCF1200F04D35A
:100F2000ACF1200C09FA0CF001E007FA0CF00029F2
:100F30004FF0004801DD18B90FE00ED140450CD349
:100F400019EB02095F4121B9404502D19F4329EACB
:100F50000209BBEB175F00D0761C2088000502D584
:100F60007B48784402E07A487844193808AA30234C
:100F700002F80A30037C0AF10101002E0AF1020A8C
:100F800053546A4602DC4FF0300101E04FF031016A
:100F90004FF001088DF8001002D0A6F2FF3603E0F2
:100FA00059EA470100D06B4E002D02DC2178090779
:100FB00004D54FF002082E218DF80110C4460021FF
:100FC0000BE0C7F303433F01C35C491C6D1E02F8ED
:100FD0000830052908F1010801DA002DF1DC0021B3
:100FE0000CE000EB1973491C1B786D1E082902F8F0
:100FF00008304FEA091908F1010801DA002DF0DC88
:1010000021688B0602D516E0A8F10108E04505DD50
:1010100002EB080313F8013C302BF5D0B8F1000FB8
:1010200009DD02EB080313F8013C2E2B03D109075D
:1010300001D4A8F10108002D05DD3E2102F80810B9
:101040006D1E08F10108407C002E02F8080008F12E
:10105000010804DA2D20764202F8080002E02B2075
:1010600002F808000A214FF47A70864208F101085C
:101070000BDB96FBF0F3303302F8083096FBF0F30D
:1010800008F1010800FB136601E0642E0CDB64200C
:1010900096FBF0F3303302F8083096FBF0F308F1DA
:1010A000010800FB136601E00A2E06DB96FBF1F057
:1010B000303002F8080008F1010896FBF1F001FB5E
:1010C0001060303002F80800A16908F1010808EB4F
:1010D000050202EB0A00081AA0612078C00602D4BB
:1010E0002046FFF730F9216A08AE01EB0A002062C2
:1010F00004E0D4E9012116F8010B9047BAF1010A86
:10110000F7D22078C00602D52046FFF71CF96E46BC
:1011100009E016F8010B3E280FD0D4E901219047D1
:10112000206A401C2062B8F10108F2D22046FFF785
:1011300020F909B00320BDE8F08F206A284420621E
:1011400003E0D4E90121302090476D1EEBD3F8E78E
:10115000CA42000002FCFFFF10B5436913B1AFF3B0
:10116000008001E0FFF728F9012010BD127800F19E
:1011700024010A7000224A700122EDE711684FF045
:10118000FF32E9E710B5436913B1AFF3008001E026
:10119000FFF7B2F9012010BD128800F1240182840A
:1011A0000022C2840122EDE711684FF0FF32E9E727
:1011B00070B516460C46054600F05EF8036893F8D5
:1011C0000101012806D0FF2C0FD8185D68B101205D
:1011D0002C7070BDD3F807013246214603F2071385
:1011E00003442846BDE8704018474FF0FF3070BDFB
:1011F00030B503461D781DB10A4603E0AC4201D16B
:10120000181A30BD12F8014B002CF7D15B1CF1E726
:1012100030B503461D783DB10A4612F8014B1CB1AA
:10122000AC42FAD15B1CF5E7181A30BD754600F0E8
:10123000EBF8AE4605006946534620F007008546A8
:1012400018B020B5FFF704F8BDE820404FF00006C5
:101250004FF000074FF000084FF0000B21F007019E
:10126000AC46ACE8C009ACE8C009ACE8C009ACE8E1
:10127000C0098D467047000010B500F005F8001D4C
:1012800010BD00BF19390000004870472804002035
:101290002DE9F0411F46044603260168072A01F4A0
:1012A000006004DB08B116A505E016A503E008B14F
:1012B00015A500E015A521F010002060A069C01E52
:1012C000A0610FB1401EA0612046FFF73CF84FB16E
:1012D000D4E9012138469047206A401C2062C01C96
:1012E000206206E0206AFAE7D4E9012115F8010B33
:1012F0009047761EF8D22046FFF73BF8BDE8F08114
:101300004E414E006E616E00494E4600696E6600A9
:101310002DE9F047814616468AB0354878440DC815
:101320008DE80D0032487844801C03AC0DC884E879
:101330000D0041F69B300844372190FBF1F290FB01
:10134000F1F5A5F1800501FB12041B3C02D56442B6
:10135000012000E00020DFF898A080460027FA4432
:10136000AAF1BE0A0EE0E0070AD03246684607EB53
:10137000470101230AEB810100F022FB8DE8070001
:1013800064107F1C002CEED1194F7F44AE3F19E052
:10139000E80715D007EB04100DF1180A90E80E00CD
:1013A0008AE80E00C068F04201D1981908903246D0
:1013B000012306A903A800F003FB03AB83E80700A1
:1013C0006D10641C002DE3D14FF0010332466946D5
:1013D000B8F1000F03A802D000F0DDFA01E000F040
:1013E000EFFAC9E90001C9F808200AB0BDE8F087A2
:1013F000A03F000010B50446AFF300802046BDE8D2
:101400001040FEF710BF000000487047080400209D
:101410004FF0013C50F8042B51F8043B9A4221D183
:10142000A2EB0C03934313EACC1317D150F8042B0F
:1014300051F8043B9A4215D1A2EB0C03934313EAF3
:10144000CC130BD150F8042B51F8043B9A4209D12C
:10145000A2EB0C03934313EACC13DBD04FF0000054
:10146000704700BFD01A01BAB1FA81F101F018013A
:1014700022FA01F0CB40C1F12001DBB2C0B2C01AA8
:101480002CFA01F3D11A914311EAC311E6D1704746
:1014900001491820ABBEFEE72600020070475FEA54
:1014A000400C08BF91F0000F4FEA8C234FEAC12295
:1014B00043EA51514FEA1C5018BF00F5F0404FEA83
:1014C000300018BF41F000415FEA6C5C00F02980F9
:1014D000BCF1FF3F08BF40F080407047130C06BFCF
:1014E00012044FF0100C4FF0000C130E04BF120248
:1014F0000CF1080C130F04BF12010CF1040C930F34
:1015000004BF92000CF1020CD30F04BF52000CF187
:10151000010C11464FF00002A0F11F00A0EB0C00DF
:10152000704711F0004F08BF704731F000413FF4A1
:10153000D5AF0B0C06BF09044FF0100C4FF0000C98
:101540000B0E04BF09020CF1080C0B0F04BF0901BC
:101550000CF1040C8B0F04BF89000CF1020CCB0FB3
:1015600004BF49000CF1010CCCF12003A0EB0C00EE
:1015700022FA03F302FA0CF241EA030100F101003E
:10158000704720F07F4C80EA030023F07F47ACEBEC
:10159000070303F57C5300F0004003F1FF032DE93E
:1015A00080494FEA154B09B44FEA144325EA0B4E24
:1015B00024EA03480FF2042606EB132749083E7875
:1015C0005FEA320203FB0667C7F5000707FB06F672
:1015D0004FEA54374FEAD64606F1020607FB066C7F
:1015E000CCF1005C4FEA1C472CEA074C07FB06F4E1
:1015F0000CFB06F504EB15464FEA961634BF0020A7
:101600004FF000404FEAD13706FB07FC4FEA1C4C75
:101610000CFB0BF7D21B03FB0CF761EB07010CFB78
:101620000EF7B0EB074072EB17420CFB08F734BF24
:10163000A2EB0742B2EB074261EB17414FEA0C44C1
:101640004FEA910706FB07FC4FEA1C4C0CFB0BF71B
:10165000B0EBC74072EB573203FB0CF734BFA2EB81
:10166000C742B2EBC74261EB57310CFB0EF7B0EB50
:10167000C70072EB57720CFB08F734BFA2EBC7022E
:10168000B2EBC70261EB5771039F4FEA816141EAF8
:10169000921104EBCC044FEAD1374FEA826206FB89
:1016A00007FC42EA90124FEA80604FEA1C4C0CFBA8
:1016B0000BF7D21B03FB0CF761EB07010CFB0EF7DA
:1016C000B0EB074072EB17420CFB08F734BFA2EBFC
:1016D0000742B2EB074261EB17414FEA8C554FEAE4
:1016E000910704EB9C2406FB07FC4FEA1C4C0CFB07
:1016F0000BF7B0EBC74072EB573203FB0CF734BF6C
:10170000A2EBC742B2EBC74261EB57310CFB0EF7BD
:10171000B0EBC70072EB57720CFB08F734BFA2EBBB
:10172000C702B2EBC70261EB577115EB4C254FEACC
:10173000816141EA92114FEA82624FEAD13742EA6F
:10174000901206FB07FC44F100044FEA80604FEA68
:101750001C4C0CFB0BF7D21B03FB0CF761EB0701D6
:101760000CFB0EF7B0EB074072EB17420CFB08F7CF
:1017700034BFA2EB0742B2EB074261EB174115EB16
:101780001C154FEA813141EA92414FEA823242EA26
:1017900090424FEA80304FEA0C7644F1000448EA68
:1017A00003434EEA0B484FF0000EB2EB080C71EB0E
:1017B000030724BF624639464EEB0E0E4FF0000B76
:1017C0000018524149414BEB0B0BB2EB080C71EB8B
:1017D00003077BF1000B24BF624639464EEB0E0E29
:1017E0004FF0000B0018524149414BEB0B0BB2EB91
:1017F000080C71EB03077BF1000B24BF62463946EE
:101800004EEB0E0E51EA020718BF46F0010616EB2A
:101810000E7655F1000254F1000103D5BDE88901AF
:10182000BDE80088BDE88901BDE80048B61952410D
:1018300041EB0101A3F10103704780807F7E7D7C35
:101840007B7A7978777676757473727171706F6E52
:101850006E6D6C6C6B6A6A696868676666656464FD
:10186000636362616160605F5F5E5E5D5D5C5C5B87
:101870005B5A5A59595858575756565555555454F6
:10188000535352525251515050504F4F4F4E4E4D54
:101890004D4D4C4C4C4B4B4B4A4A4A4949494848A0
:1018A00048474747474646464545454444444443E0
:1018B00043434342424242414141002B9C4630D483
:1018C00077002BD01CB54FEA370703B44FF0100058
:1018D0004FF01001BAF1000F06D0BCF1000FDCBFD1
:1018E00040F0080040F008014FF000000FBCBDE8D8
:1018F00010400BF1010BBBF1010F08BF5FEA1707A6
:1019000022BF12F1010211F101014FF0004143F138
:10191000000300F0004043EA00007047F9D3570885
:10192000D0E746EA064613F1400F4FEA16461FDDA0
:1019300013F1200FDFBF16430A46002120335B421C
:10194000BED0C3F1200746EA064602FA07F74FEA7F
:10195000164646EA0706C3F1200722FA03F201FA07
:1019600007F721FA03F14FF0000342EA0702A7E765
:1019700046EA020646EA06464FEA164646EA0106E7
:10198000BCBF46EA0646360C4FF000034FF000029B
:101990004FF0000194E72DE9804C9A46934670B4CD
:1019A00091E8380007C831EA400C48BF34EA430CDC
:1019B00003D5FFF7E6FDFFF780FFF0BCBDE8008C24
:1019C0002DE9804C9A46934670B491E8380007C8D8
:1019D00010F0804F08BF13F0804F03D100F005F8DE
:1019E000FFF76BFFF0BCBDE8008C20F07F4780EA7A
:1019F000030023F07F4C07EB0C03A3F57C5300F0AE
:101A00000040A3F1FE0392F0000F00F0B38095F0C8
:101A1000000F00F077802DE901494FEA11404FEAAD
:101A2000144621EA004800FB06FC24EA064708FBAE
:101A300006F607FB08F800FB07F718EB06484CEB27
:101A4000164C4FEA124B18EB07484FEA15464CEB81
:101A5000174022EA0B4E0BFB06FC25EA06470EFB5D
:101A600006F607FB0EFE0BFB07F71EEB064E4CEBD4
:101A7000164C4FF000061EEB074E4CEB174B18EBC5
:101A80000B0840F1000018EB0E0B58EB000840F17A
:101A900000008F1A4FF000013CBFC943661B14BF02
:101AA000B5EB040C00213CBFC943F61B4FEA1744B9
:101AB0004EEA8E0E27EA04454FEA1C4704FB0762F4
:101AC0002CEA074C05FB07F70CFB05F604FB0CFCA6
:101AD00016EB074642EB174216EB0C4642EB1C4254
:101AE0001BEB060658EB0202414146EA9E0601D571
:101AF000BDE80189B619524141EB0101A3F101038F
:101B0000BDE801894FEA14454FEA114724EA05462A
:101B100021EA074C05FB07F406FB07F70CFB06F16F
:101B200005FB0CFC11EB074144EB17444FEA12474D
:101B300011EB0C4144EB1C4422EA074C05FB07F275
:101B400006FB07F70CFB06F605FB0CFC16EB07463D
:101B500042EB174216EB0C4642EB1C456A1854F157
:101B6000000148BF7047B619524141EB0101A3F192
:101B70000103704795F0000F37D04FEA11424FEA4A
:101B8000144721EA024624EA074C02FB07F106FB50
:101B900007F70CFB06F402FB0CFC14EB074441EBCB
:101BA00017414FEA154714EB0C4441EB1C4125EA61
:101BB000074C02FB07F506FB07F70CFB06F602FBDA
:101BC0000CFC16EB074645EB174516EB0C4645EBB0
:101BD0001C42121951F1000148BF7047B619524119
:101BE00041EB0101A3F1010370474FEA14454FEAAD
:101BF000114724EA054621EA074C05FB07F106FBDD
:101C000007F70CFB06F24FF0000605FB0CFC12EB8D
:101C1000074241EB174112EB0C4251EB1C4148BF0C
:101C20007047921841EB0101A3F101037047FEE7F1
:101C300030B590F840500124AC40C56B6C6004682E
:101C400063604368102B036803D099600068C2602A
:101C500030BD9A600068C16030BD704710B590F823
:101C600021100022022905D00421816380F8202060
:101C7000012010BD01680B6823F00E030B600168A2
:101C80000B6823F001030B6090F84030C46B012116
:101C900001FA03F3636080F8211080F820201046D9
:101CA00010BD000010B590F821100024022903D0C7
:101CB0000421816301243DE001680A6822F00E02DC
:101CC0000A6001680A6822F001020A601A4A016883
:101CD000914201D1012121E0174A1432914201D1F0
:101CE00010211BE0144A2832914201D1891515E0D8
:101CF000114A3C32914201D189140FE00E4A503210
:101D0000914202D14FF4803108E00B4A6432914293
:101D100002D14FF4801101E04FF08071064A083A79
:101D20005160012180F82110002180F82010416BC2
:101D300001B18847204610BD0800024070B5044636
:101D400090F82000002501280CD0012084F8200004
:101D500094F821600020012E06D084F8200002258E
:101D6000284670BD022070BD022684F82160A06361
:101D70002068066826F0010606602046FFF758FF37
:101D8000E06A00282068016802D041F00E0106E0F8
:101D900021F0040101602068016841F00A0101603E
:101DA0002068016841F001010160D9E770B504467F
:101DB00000F008F90546601C02D00448007804448D
:101DC00000F000F9401BA042FAD370BD04000020CF
:101DD0002DE9F84FDFF8B8910024A9F1040B234650
:101DE0000F2709F1040AABF1040EC9E00125A54053
:101DF0002A40AA427DD1674ED1F804C0ACEB060858
:101E0000B44532D014DCBCF1030F3AD009DCBCF18C
:101E1000000F2AD0BCF1010F1CD0BCF1020F31D150
:101E20001DE0BCF1110F17D0BCF1120F2AD119E03F
:101E3000B8F5881F19D006DCB8F5803F15D0B8F585
:101E4000801F1FD111E0B8F5001F0ED0B8F5041F98
:101E500018D10AE0CB6815E0CB681B1D12E0CB68F7
:101E600008330FE0CB680C330CE08B682BB1012BEF
:101E70004FF0080303D0456104E0042302E005614C
:101E800000E00023FF2A01D8064601E000F1040625
:101E90004FEA840501D9A5F12005D6F8008007FA9C
:101EA00005FC28EA0C0803FA05F548EA0508C6F817
:101EB00000804D68ED0062D5374DAE6946F00106F1
:101EC000AE61AD6924F0030605F001050095334DC0
:101ED00006EB050CDCF80850A607360F07FA06F8E3
:101EE00025EA0805DFF8B880404503D14FF0000827
:101EF00017E044E0DFF8AC80404502D14FF0010824
:101F00000FE0DFF8A480404502D14FF0020808E05E
:101F1000DFF89880404502D14FF0030801E04FF010
:101F2000040808FA06F848EA0508CCF808804D6865
:101F3000D9F80060ED024D4601D5164300E0964306
:101F40002E604D68DAF80060AD02554601D51643A3
:101F500000E096432E604D68DBF80060AD035D46FF
:101F600001D5164300E096432E604D68DEF8006010
:101F7000ED03754601D5164300E096432E60641CC0
:101F80000D682A46E5407FF431AFBDE8F88F0000C8
:101F90000804014000001110001002400000014040
:101FA00000080140000C01400010014000140140F5
:101FB0008068084000D0012070470AB10161704775
:101FC0000904FBE701488068704700000400002016
:101FD0000248816802781144816070470400002043
:101FE000074810B5016841F010010160032000F0BE
:101FF00075F80F2000F006F800F024F8002010BD5E
:102000000020024070B50D4D04464FF47A712878D7
:10201000B1FBF0F00A490968B1FBF0F000F0DCFA1E
:1020200048B9102C07D200222146501E00F036F885
:1020300000206C6070BD012070BD00000400002015
:10204000100000200C4808B5816941F00101816150
:10205000816901F001010091C16941F08051C161C4
:10206000C06900F0805000900448416821F0E061B0
:1020700041F00071416008BD0010024000000140C5
:10208000002809DB00F01F02012191404009800077
:1020900000F1E020C0F8001170470000F0B40E4BD2
:1020A0001B680C46C3F30223C3F10705042D00D9B6
:1020B0000425191D072901D2002300E0DB1E01269B
:1020C00006FA05F1491E214099409E40761E1640B1
:1020D0003143F0BC01F0EBBA0CED00E0064900F032
:1020E000070208684FF6FF03184040EA0220034A3F
:1020F00010430860704700000CED00E00000FA0596
:102100002DE9F0470F46050061D0434E306800F0DE
:102110000700B84209D2306820F007003843306029
:10212000306800F00700B84251D128683B4C810765
:1021300012D5400703D5606840F4E06060602878FD
:10214000000703D5606840F4605060606068A9686B
:1021500020F0F000084360602878C00728D0686845
:10216000012810D02168022810D0890700292EDA12
:10217000616821F0030101436160FFF723FF80469E
:1021800041F288390DE021688903EFE78901EDE725
:10219000FFF718FFA0EB0801494502D90320BDE86D
:1021A000F0876068696800F00C00B0EB810FEFD138
:1021B000306800F00700B8420BD9306820F0070003
:1021C00038433060306800F00700B84201D0012089
:1021D000E5E72878400705D56068E96820F4E06005
:1021E000084360602878000706D56068296920F4F4
:1021F000605040EAC100606000F038F86168084A49
:10220000C1F30311515CC8400649086006480068E4
:10221000FFF7F8FE0020C2E7002002400010024055
:10222000C45100081000002008000020044805499F
:1022300000684968044AC1F30221515CC8407047F4
:102240001000002000100240D45100080448054945
:1022500000684968044AC1F3C221515CC840704714
:102260001000002000100240D45100080E4A5168AE
:102270000E4801F00C03042B11D0082B0FD10C4891
:10228000C1F38343C903C05C0AD55168084AC1F34E
:102290004041921E515C054A5043B0FBF1F070473B
:1022A00004494843704700000010024000127A00C1
:1022B000B451000800093D002DE9F84F040070D02A
:1022C0002078C04DC00749D06868C0F3810001285C
:1022D00007D06868C0F38100022809D16868C0038C
:1022E00006D52868800339D560680028E7D035E036
:1022F0006068B0F5803F0BD010B1B0F5A02F11D0C1
:10230000286820F480302860286820F4802002E0CB
:10231000286840F480302860606890B1FFF752FE72
:1023200006460AE0286840F480202860F0E700BFF5
:10233000FFF748FE801B642873D828688003F7D510
:102340000CE0FFF73FFE064605E000BFFFF73AFE50
:10235000801B6428F0D828688003F7D420789A4E30
:1023600080074FF001094FF0000839D5686810F078
:102370000C0F07D06868C0F38100022809D1686893
:10238000C00306D42868800714D52069012808D125
:1023900010E02069B0B1C6F80090FFF713FE0746C1
:1023A00005E00AE1FFF70EFEC01B0228C4D828682A
:1023B0008007F7D52868616920F0F80040EAC1007D
:1023C00028600DE0C6F80080FFF7FCFD074604E03A
:1023D000FFF7F8FDC01B022823D828688007F7D430
:1023E000207800072CD57948A169D9B1C0F80090B0
:1023F000FFF7E8FD074604E0FFF7E4FDC01B0228F5
:102400000FD8686A8007F7D571484FF4FA51006811
:10241000B0FBF1F0009000BF0098411E0091FAD28D
:102420000EE080E0C0F80080FFF7CCFD074604E036
:10243000FFF7C8FDC01B022875D8686A8007F7D46B
:102440002078400760D5E8690027C00008D4E86913
:1024500040F08050E861E869012700F0805000906A
:102460005C480168C90513D40168834641F4807152
:102470000160FFF7A7FD824606E000BFFFF7A2FD5F
:10248000A0EB0A0064284ED8DBF80000C005F5D5A3
:10249000E06801280AD008B1052813D0286A20F086
:1024A00001002862286A20F0040002E0286A40F057
:1024B00001002862E06841F2883B98B1FFF782FD95
:1024C00082460BE0286A40F004002862EEE700BF75
:1024D000FFF778FDA0EB0A0159455AD8286A800712
:1024E000F6D50CE0FFF76EFD824605E0FFF76AFDCA
:1024F000A0EB0A0159454CD8286A8007F6D41FB1D1
:10250000E86920F08050E861E06988B36968C1F348
:102510008101022944D00228C6F8608004D0FFF768
:1025200051FD044638E034E0FFF74CFD074604E077
:10253000FFF748FDC01B02282BD828688001F7D47C
:10254000206AB0F5803F05D16868A16820F40030AA
:1025500008436860D4E908010843696821F47411EC
:1025600008436860C6F86090FFF72CFD044606E05B
:1025700025E000BFFFF726FD001B022809D82868C8
:102580008001F7D51BE000BFFFF71CFD001B0228F0
:1025900002D90320BDE8F88F28688001F4D40EE04A
:1025A0000128F7D06868226A00F48031914204D192
:1025B000616A00F47010884201D00120EAE700202F
:1025C000E8E700000010024000004242800442425E
:1025D000100000200070004010B5401EB0F1807F58
:1025E00001D3012010BD4FF0E02460610F2160177E
:1025F00001F05DF80020A06107202061002010BDDF
:1026000010B590F83C20012A22D0012280F83C200D
:10261000CA688C6822F4407222434C6822F48062BB
:1026200022430C6822F4006222430C6922F4805297
:1026300022434C6922F400522243C969002322F448
:1026400080420A4301684A6480F83C30002010BD93
:10265000022010BD70B590F83C20012A26D001243C
:1026600080F83C40022280F83D2003685A689D684B
:1026700022F070060A6832435A600D4B02689A4293
:1026800008D0B2F1804F05D00A4B9A4202D00A4BD3
:102690009A4204D1496825F080031943916080F87B
:1026A0003D40002180F83C10084670BD022070BDFE
:1026B000002C014000040040000800402DE9F041DA
:1026C0000D46040003D094F83D0018B108E0012045
:1026D000BDE8F081002084F83C00204600F040F87E
:1026E000022084F83D002068816844F2070291438B
:1026F0008160211D206800F06BFD2268906891695F
:10270000166A2B68AF69034340F20330814341EA04
:102710000721A868EF6908434FF6FC418843E96840
:1027200040EA0720014328692F6A000140EA073088
:10273000084369686D6926F0220646EA05152943B3
:1027400093602268906154F8460B0162012004F8FE
:102750001F09E0752076E0762077A0750020B7E7A6
:1027600000B585B0002100910191029103910168AB
:102770001A48B1F1804F1BD0194A914216D1C16954
:1027800041F00401C161C16901F004010491816952
:1027900041F0080181618069694600F008000490F9
:1027A000C02000900F4800BFFFF712FB05B000BD2E
:1027B000C16941F00101C161C16901F001010491E8
:1027C000816941F0040181618069694600F004007B
:1027D0000490032000900448E6E700000010024047
:1027E00000080040000C01400008014000B585B021
:1027F0000021009101910291039100680B498842E8
:1028000012D10B48816941F00401816180696946F8
:1028100000F0040004904FF44070009002200190FA
:1028200003900448FFF7D4FA05B000BD002C014026
:10283000001002400008014070B5044690F83C00CA
:1028400000260D4601280FD0012084F83C006AB113
:10285000042A1DD0082A2FD00C2A3FD001260020A0
:1028600084F83C00304670BD022070BD206800F046
:10287000F9FC2068816941F0080181612068816963
:1028800021F004018161206881692A69114311E006
:10289000206800F00FFD2068816941F400618161CA
:1028A0002068816921F480618161206881692A69D9
:1028B00041EA02218161D2E7206800F027FD20680B
:1028C000C16941F00801C1612068C16921F00401BA
:1028D000C1612068C1692A69114311E0206800F0D4
:1028E00041FD2068C16941F40061C1612068C1698E
:1028F00021F48061C1612068C1692A6941EA02212D
:10290000C161ACE710B5040003D094F83D0010B1EC
:1029100007E0012010BD002084F83C00204600F0B4
:102920001FF8022084F83D00211D206800F050FCB3
:10293000012084F8460084F83E0084F83F0084F8C3
:10294000400084F8410084F8420084F8430084F891
:10295000440084F8450084F83D00002010BD0000CC
:1029600008B500680649884208D10648816941F4E3
:1029700000618161806900F40060009008BD000082
:10298000002C01400010024010B50446022249B15B
:1029900004290ED0082913D094F84100012816D03C
:1029A000012010BD94F83E000128F9D184F83E20A2
:1029B0000FE094F83F000128F2D184F83F2008E0AE
:1029C00094F840000128EBD184F8402001E084F81D
:1029D00041200122206800F037FC0F49206888421E
:1029E00003D1426C42F4004242642068884208D01D
:1029F000B0F1804F05D00949884202D00849884289
:102A000004D1816801F00701062903D0016841F073
:102A100001010160002010BD002C014000040040B5
:102A20000008004070477047F8B501680446086820
:102A3000CA684B6910F00F0F4FF0000559D003F032
:102A4000010602F49077374365D0C10705D0D10560
:102A500003D5616C41F001016164410705D5D907D7
:102A600003D0616C41F002016164810705D5D9078B
:102A700003D0616C41F004016164010707D502F0E5
:102A80002001314303D0616C41F008016164616C45
:102A900000293AD0800604D5900602D5204600F0E1
:102AA0000BFD20684069616CC0F38010090700D4F9
:102AB00060B3204600F0CBFC20684069400621D579
:102AC0002068143050E8001F21F0400140E8001257
:102AD000002AF5D1E06BA8B16D494163E06BFFF7C7
:102AE000E1F8002811D0E06B416B01B0BDE8F04087
:102AF000084783060FD593060DD52046BDE8F8405C
:102B000000F0DABC2046FFF78EFFF8BD2046FFF745
:102B10008AFF6564F8BD266B2023012E7CD1C60692
:102B20007AD5D60678D508684868009048694FF08D
:102B30000206400640D5E16B086840680004000CBE
:102B4000E8D0A28D8242E5D9E085886920282DD081
:102B500020680C3050E8001F21F4807140E800121A
:102B6000002AF5D12068143050E8001F21F001013F
:102B700040E80012002AF5D12068143050E8001F08
:102B800021F0400140E80012002AF5D184F84230DB
:102B9000256320680C3050E8001F21F0100140E848
:102BA0000012002AF5D1E06BFFF758F86663A08D9C
:102BB000E18D401A81B22AE0A08DE18D401A81B2E8
:102BC000E08D0028A6D00029A4D022680C3252E85B
:102BD000000F20F4907042E80007002FF5D1206824
:102BE000143050E8002F22F0010240E80027002FA7
:102BF000F5D184F84230256320680C3050E8002F6E
:102C000022F0100240E80023002BF5D16663204635
:102C1000FFF708FFF8BDFFE705062BD5150629D5F8
:102C200094F841002128F5D1A068B0F5805F01D16A
:102C30002069B0B1206A411C216221680078486097
:102C4000E08C401E0004000CE084E3D12068C168E1
:102C500021F08001C1602068C16841F04001C1607D
:102C6000D8E7206A0088C0F308004860206A801C0A
:102C70002062E5E74006CDD55006CBD5CA68204690
:102C800022F04002CA6084F8413000F009F9C1E73F
:102C9000A933000870B5040004D094F84100002561
:102CA00010B106E0012070BD84F84050204600F0CD
:102CB00023F8242084F841002068C16821F40051E1
:102CC000C160204600F05AFC2068016921F490415F
:102CD00001612068416921F02A0141612068C168D1
:102CE00041F40051C1606564202084F8410084F8FB
:102CF00042006563002070BD30B585B000240094AB
:102D00000194029403942E4D03682E48022103225D
:102D1000AB4227D1C36943F40033C361C36903F4F1
:102D200000330493836943F0040383618069264D73
:102D300000F0040004900420CDE9000103926946EC
:102D40002846FFF745F80820CDE9000469462846E3
:102D50000294FFF73DF8002201212620FFF79EF99B
:102D6000262029E0194DAB4228D1C36943F48023C2
:102D7000C361C36903F480230493836943F00803A8
:102D800083618069039200F0080004902815CDE962
:102D900000010F4D69462846FFF71AF8E814CDE9FF
:102DA0000004694628460294FFF712F80022022127
:102DB0002720FFF773F92720FFF762F905B030BD30
:102DC000004400400010024000080140004800405C
:102DD000000C014090F84230202B01D002207047B7
:102DE00021B11AB10023036300F024BC0120704715
:102DF00010B504460068094988420ED10848807819
:102E000001F0A0FD074801F03DFD054920460122E3
:102E1000BDE81040891CFFF7DDBF10BD0044004035
:102E200000000020B801002070B5044690F8410071
:102E3000202801D0022070BD49B342B32162A28490
:102E4000E28400206064212384F84130A56B114B9B
:102E5000AB62A56B104BEB62A56B104B2B63A36BA6
:102E60005863256813462A1DA06BFEF767FF21688B
:102E70006FF0400008602068143050E8001F41F0F7
:102E8000800140E80012002AF5D1002070BD012029
:102E900070BD00000334000845340008B933000851
:102EA00070477047FEE700002DE9F04786B0002428
:102EB00034480094019402940394816941F0100114
:102EC0008161816901F010010491816941F0200163
:102ED0008161816901F020010491816941F004015F
:102EE0008161816901F004010491816941F0080167
:102EF00081618069DFF8908000F008004FF4C045E0
:102F00000490002229464046FFF757F8DFF87C90EE
:102F10004FF49067002239464846FFF74EF8DFF835
:102F200070A000224FF23B015046FFF746F8009593
:102F3000022601250396CDE9015469464046FEF775
:102F400047FF00970396CDE9015469464846FEF7CE
:102F50003FFF46F2330000901120CDE90105032028
:102F6000039069465046FEF733FF49F20800CDE969
:102F70000005CDE9024669465046FEF729FF06B036
:102F8000BDE8F08700100240001001400008014039
:102F9000000C014010B592B000240F941C2168462B
:102FA0001094FDF7A6F9202107A8FDF7A2F92448FF
:102FB0002249C0E900144FF6FF71C0E902410461E3
:102FC00044618461FFF79EFC08B172B6FEE70F947E
:102FD0000FA91B481094FFF73DFB08B172B6FEE73E
:102FE0006020CDE900040294039404940594002227
:102FF000694613480694FFF71FFC08B172B6FEE756
:10300000042269460E48FFF717FC08B172B6FEE7C6
:103010000794089409944FF400500A94CDE90B40AA
:1030200007A907480E94FFF7EBFA08B172B6FEE75E
:103030000348FFF7DBFB12B010BD0000002C01407D
:103040002800002010B58CB024216846FDF751F906
:103050000024154809944FF080410A94C0E90014F7
:103060004FF6FF71C0E90241046184610320CDE99C
:1030700000040120CDE902040494CDE90540079441
:10308000694609480894FFF719FB08B172B6FEE7D4
:10309000099409A904480A94FFF7DCFA002801D032
:1030A00072B6FEE70CB010BD7000002010B58CB0F9
:1030B00024216846FDF71DF9002415480994134999
:1030C0000A94C0E900144FF6FF71C0E9024104619F
:1030D00084610120CDE90004CDE902040494CDE926
:1030E0000540079469460A480894FFF7E7FA08B1D3
:1030F00072B6FEE7099409A905480A94FFF7AAFAEF
:10310000002801D072B6FEE70CB010BD00080040E8
:10311000B8000020FEE7FEE72DE9F0410546006813
:103120000F460468E06A01F0B7FE06460D493846CE
:1031300001F0B8FD314601F0F7FE01F075FE696857
:1031400080B2012908D0022908D0032908D0042917
:1031500000D12064BDE8F0816063FBE7A063F9E77C
:10316000E063F7E70000C84270477047FEF730BFE2
:1031700030B58FB028216846FDF7BBF814210AA8A6
:10318000FDF7B7F801210804CDE9001000240294EE
:1031900002250491CDE907504FF4E01009906846EC
:1031A000FFF78AF808B172B6FEE70F20CDE90A05ED
:1031B0004FF48060CDE90C4002210AA80E94FEF77E
:1031C0009FFF002801D072B6FEE70FB030BD7047F8
:1031D000F0B50268194B1A4C1A4D4FF080479842CF
:1031E00005D0B84203D0A04201D0A84203D122F0BA
:1031F00070064A683243984205D0B84203D0A042D4
:1032000001D0A84203D122F44074CA6822434C6919
:1032100022F08002224302608A68C2620A688262E7
:10322000984201D109690163012141610169C9071E
:1032300003D0016921F001010161F0BD002C0140C2
:10324000000400400008004010B501F01F030121F8
:10325000046A99408C430462016A9A4011430162F6
:1032600010BD000030B5036A026A22F0010202625A
:103270004268846924F073050C682C4323F002052E
:103280008B682B430A4DA8420BD123F00805CB686D
:1032900022F440722B434D6923F0040315438A69DD
:1032A0002A434260846149684163036230BD000083
:1032B000002C014030B5026A036A23F01003036258
:1032C000436884690D6824F4E64444EA05248D6863
:1032D00022F0200242EA05120B4DA8420ED1CD6821
:1032E00022F0800242EA05124D6923F4406343EA6A
:1032F00085038D6922F0400243EA850343608461BF
:1033000049688163026230BD002C014030B5036A18
:10331000026A22F4807202624268C46923F4007374
:1033200024F073050C682C438D6843EA05230C4D8B
:10333000A8420ED1CD6823F4006343EA05234D690A
:1033400022F4405242EA05128D6923F4806342EA76
:1033500005124260C4614968C163036230BD000068
:10336000002C014030B5046A026A22F480520262E5
:103370004268C3690D6823F4E64343EA05238D6878
:1033800024F4005444EA0534064DA84204D14D69A2
:1033900022F4804242EA85124260C36149680164B6
:1033A000046230BD002C014010B5406A0021C18587
:1033B000C184FFF738FB10BD70B5446A20684069CE
:1033C00094F84110C0F3C0100025212904D118B190
:1033D000E584204600F062F82068406994F84210C5
:1033E000C0F38010222904D118B1E585204600F0F1
:1033F0002EF8606C40F0100060642046FFF713FB6D
:1034000070BD10B50146406A09680968890616D47E
:103410000021C1840168143151E8002F22F080029C
:1034200041E80023002BF5D101680C3151E8002F51
:1034300042F0400241E80023002BF5D110BDFFF718
:103440002FFD10BD10B5406AFFF72BFD10BD0168C0
:103450000C3151E8002F22F4907241E80023002B38
:10346000F5D10168143151E8002F22F0010241E842
:103470000023002BF5D1016B012909D101680C3122
:1034800051E8002F22F0100241E80023002BF5D173
:10349000202180F8421000210163704701680C313F
:1034A00051E8002F22F0C00241E80023002BF5D1A3
:1034B000202180F84110704708B590F84210222969
:1034C00001D0022008BD82684FF480539A4201D196
:1034D000016921B1816A9A421BD04AB10AE00268AF
:1034E000816A5268C2F308020A80816A891C08E076
:1034F000026972B10268526802F07F020A70816A42
:10350000491C8162C18D491E0904090CC18503D083
:103510001BE002685268F1E70168CA6822F02002E5
:10352000CA600168CA6822F48072CA6001684A6988
:1035300022F001024A61202180F8421000214163FB
:10354000026B012A03D0FFF753FC002008BD016382
:1035500001680C3151E8002F22F0100241E80023ED
:10356000002BF5D101680A68D20602D50A684968BD
:103570000091818DFFF756FAE7E7000070B5044629
:1035800000680169E26821F4405111430161216939
:10359000A0680843616908432168CA6841F20C6366
:1035A0009A430243CA6020684169A26921F44071CC
:1035B000114341611E492068884202D1FEF746FE50
:1035C00001E0FEF733FE00EBC00101EB0012606882
:1035D00064218000B2FBF0F3B3FBF1F36FF0180647
:1035E0007343B2FBF0F5B2FBF0F605EB8305322333
:1035F00003EB0515B5FBF1F5B6FBF1F605F0F005AB
:1036000005EB0615B2FBF0F6B2FBF0F0B0FBF1F003
:103610006FF01802504306EB800003EB0010B0FB84
:10362000F1F0216800F00F002844886070BD0000B0
:103630000038014081628285C285002141642221D7
:1036400080F84210016921B10168CA6842F48072B1
:10365000CA6001684A6942F001024A610068C168B3
:1036600041F02001C1600020704700000148FFF7D1
:10367000DBB90000000100200148FFF7D5B90000C8
:1036800048010020FEE7490050EAC12018BF04208D
:103690004A0D18BF40F0010040F2FF72B2EB515FDB
:1036A00008BF40F00200012808BF05207047090745
:1036B000090E002804DB00F1E02080F800147047B8
:1036C00000F00F0000F1E02080F8141D7047303842
:1036D0000A2801D2012070470020704738B50446FF
:1036E0000179006804230A2200F062FB002820D040
:1036F00000208DF8000021796B468422206800F0BC
:103700008EFA002815D09DF80000842220F01003C6
:103710008DF800302179206800F04AFB002808D09D
:10372000217901230B22206800F042FB002800D001
:10373000012038BD70B50446007A0D4690B10128CD
:1037400017D002281CD1218A0122E068FEF735FC3F
:1037500029460C4801F0B4FC01462046BDE8704003
:10376000FFF7DABC218A0022E068FEF726FC002180
:10377000F3E7218A0022E068FEF71FFC2946ECE708
:1037800070BD00000000C84238B5044600208DF826
:10379000000021796B468922206800F040FA002859
:1037A00044D09DF80000892240F001038DF80030DC
:1037B0002179206800F0FCFA002837D02179002315
:1037C0008822206800F0F4FA05462179012380223E
:1037D000206800F0EDFA054021790123FF222068DE
:1037E00000F0E6FA0540002321791A46206800F02F
:1037F000DFFA054021790E4B9122206800F00FFA84
:103800000540217901230022206800F0D1FA05400B
:1038100021790023FF22206800F0CAFA05402179AF
:1038200000238022206800F0C3FA284038BD000041
:10383000200000202DE9F04107004FF0FF3813D0A1
:10384000002635463446FCF735FD10F0FF020BD05C
:1038500000206FF02F0319E0395C2D2907D0A1F16A
:10386000300CBCF10A0F09D34046BDE8F08155EA9F
:103870000001F9D101266D1CEDB205E004EB8404D2
:1038800003EB440421440CB2401CC0B29042E3D389
:10389000642C01DD7820E8E70EB1604204B260B22A
:1038A000E3E72DE9FE4300250F468DF8045002950D
:1038B000994690460446017900680123802200F071
:1038C00077FA064621790123FF22206800F070FA7A
:1038D0000640002321791A46206800F069FA064064
:1038E00021790623FF22206800F062FA0640217940
:1038F00001AB8322206800F092F906409DF8040095
:10390000217940F004038322206800F051FA064038
:1039100021790723FF22206800F04AFA0640217926
:1039200001238122206800F043FA06402179012317
:103930008022206800F03CFA00EA06010E007DD0EB
:1039400021796B239422206800F032FA304006007F
:103950007CD08DF80050217900238322206800F06C
:1039600027FA002872D021796B468322206800F064
:1039700056F900286AD09DF800000028F3D021797C
:1039800001238322206800F013FA00285ED02179F9
:1039900002AB9022206800F0FDF8002856D0029873
:1039A0000023C0F30620387002988122C0F3C03192
:1039B00088F800102179206800F0FAF900EA06057D
:1039C00021790623FF22206800F0F2F905402179D1
:1039D00001AB8322206800F022F905409DF8040025
:1039E000217900F0FB038322206800F0E1F9054013
:1039F00021790123FF22206800F0DAF905402179BE
:103A000001230022206800F0D3F900EA050621799D
:103A10000023FF22206800F0CBF900EA0605217997
:103A200000238022206800F0C3F900EA0506062082
:103A3000009021794B46B022206800E006E000F0BB
:103A400038F8002800D03046BDE8FE830020FBE7B0
:103A5000F8B500200C4D0D4E0D4F009002E000987F
:103A6000401C00902868B0FBF6F001F015FA3946CA
:103A700001F05AFA0446009801F00EFA214601F0CE
:103A80001FFAECD3F8BD00001000002040420F00E8
:103A90000000A03F10B5044602982160A280A360F8
:103AA000A081204600F024F92046BDE8104000F037
:103AB00015B92DE9F0411E4617460C468046069D75
:103AC00000F029F96006010E404600F092F9002846
:103AD00028D03946404600F08CF9002822D04046D4
:103AE00000F019F9012000EB4400C1B2404600F09B
:103AF00080F9002816D000246F1E06E00121404600
:103B000000F0BAF83055641CE4B2BC42F6DB002188
:103B1000404600F0B1F8711901F8010C404600F080
:103B20000DF90120BDE8F0812DE9F0411E46144653
:103B30000D46074600F0EFF86806010E384600F023
:103B400058F9002824D02146384600F052F90028C0
:103B50001ED0384600F0DFF8012000EB4500C1B26E
:103B6000384600F046F9002812D00121384600F00E
:103B700083F860F307040021384600F07DF860F315
:103B80000F24384600F0DAF8A0B240BA30800120A5
:103B9000BDE8F0812DE9F0411E4614460D4607466A
:103BA00000F0B9F86806010E384600F022F9002846
:103BB00033D02146384600F01CF900282DD0384675
:103BC00000F0A9F8012000EB4500C1B2384600F032
:103BD00010F9002821D00121384600F04DF860F39B
:103BE00007040121384600F047F860F30F24012153
:103BF000384600F041F860F317440021384600F0E1
:103C00003BF860F31F640546384600F097F820BA89
:103C100020F0FF00284330600120BDE8F0812DE94D
:103C2000F0411D4616460C46074600F074F8600643
:103C3000010E384600F0DDF800281AD0314638462B
:103C400000F0D7F8002814D0384600F064F80120BE
:103C500000EB4400C1B2384600F0CBF8002808D091
:103C60000021384600F008F82870384600F066F861
:103C70000120BDE8F08100002DE9F0410F468046AB
:103C8000002500F035F807245FF00106FFF7E0FE9D
:103C9000404600F023F8FFF7DBFE404600F032F824
:103CA00018B106FA04F02843C5B2404600F01BF8EC
:103CB000641EEBD5404617B100F01FF801E000F09C
:103CC00017F8FFF7C5FE404600F008F8FFF7C0FE02
:103CD000404600F008F82846BDE8F0818188006879
:103CE0000122FEF76AB9818800680022FEF765B9F3
:103CF000818980680122FEF760B98189806800228D
:103D0000FEF75BB910B581898068FEF751F901288B
:103D100000D0002010BD10B50446FFF7E9FF204693
:103D2000FFF7DCFFFFF794FE2046FFF7E6FFFFF703
:103D30008FFE2046BDE81040FFF7D5BF10B5044602
:103D4000FFF7DBFFFFF784FE2046FFF7C7FFFFF713
:103D50007FFE2046FFF7CCFFBDE81040FFF778BE9E
:103D60002DE9F0411D4617460C468046069EFFF79A
:103D7000D2FF6006010E404600F03BF8002815D047
:103D80003946404600F035F800280FD0002407E0FF
:103D9000295D404600F02DF8002807D0641CE4B2ED
:103DA000B442F5D34046FFF7C9FF0120BDE8F081DA
:103DB0002DE9F0411D4616460C460746FFF7ABFFBE
:103DC0006006010E384600F014F800280FD0314686
:103DD000384600F00EF8002809D02946384600F091
:103DE00008F8002803D03846FFF7A8FF0120BDE8F7
:103DF000F0812DE9F04107240E460746012505FA1A
:103E000004F03042384602D0FFF772FF01E0FFF7BE
:103E100074FFFFF71DFE3846FFF760FFFFF718FE3F
:103E20003846FFF760FF641EE9D53846FFF760FFAC
:103E3000FFF70EFE3846FFF751FFFFF709FE384641
:103E4000FFF760FF80F001043846FFF74CFF204683
:103E5000BDE8F08138B50446818901228068FEF70B
:103E6000ACF80120FDF7A2FF002120688DF80010BA
:103E70006B46C0222921FFF7D2FE18B19DF8000041
:103E8000EE2801D0002038BD21798A2201F07F037D
:103E900029212068FFF78CFF0028F4D0012038BDCD
:103EA00010B50446FFF770FC002820D0204600F033
:103EB0004DFCE8B1204600F01DF8C8B12046FFF7E0
:103EC0000DFCA8B1E821204600F039FC80B10021AA
:103ED000204600F0AFFB58B10121204600F0AAFBBC
:103EE00030B1E821204600F02AFC08B1012010BDC5
:103EF000002010BD70B50446017900680123FF223F
:103F0000FFF756FF0546002321791A462068FFF780
:103F10004FFF00EA050621790023FF222068FFF702
:103F200047FF00EA06052179002309222068FFF7F0
:103F30003FFF05402179002310222068FFF738FF5A
:103F400000EA05062179002311222068FFF730FFDF
:103F500000EA06052179012324222068FFF728FFC3
:103F600005402179FF2325222068FFF721FF054026
:103F70002179002375222068FFF71AFF0540217977
:103F80000123FF222068FFF713FF00EA05062179CD
:103F90002C234E222068FFF70BFF00EA060521794B
:103FA000002348222068FFF703FF054021792023E2
:103FB00030222068FFF7FCFE054021790023FF2214
:103FC0002068FFF7F5FE054021790923302220689B
:103FD000FFF7EEFE05402179002354222068FFF709
:103FE000E7FE05402179042331222068FFF7E0FE37
:103FF00005402179032332222068FFF7D9FE0540CE
:104000002179832340222068FFF7D2FE05402179E1
:10401000252346222068FFF7CBFE054021790023A7
:1040200060222068FFF7C4FE00EA0506217900231C
:1040300027222068FFF7BCFE00EA06052179062347
:1040400050222068FFF7B4FE00EA0506217900231C
:1040500051222068FFF7ACFE00EA0605217996237D
:1040600052222068FFF7A4FE05402179082356223A
:104070002068FFF79DFE00EA0506217930235722CC
:104080002068FFF795FE00EA0605217900236122EA
:104090002068FFF78DFE0540217900236222206809
:1040A000FFF786FE05402179002364222068FFF790
:1040B0007FFE05402179002365222068FFF778FE06
:1040C00005402179A02366222068FFF771FE054094
:1040D00021790123FF222068FFF76AFE054021793C
:1040E000322322222068FFF763FE05402179142342
:1040F00047222068FFF75CFE05402179FF23492213
:104100002068FFF755FE0540217900234A222068E8
:10411000FFF74EFE054021790023FF222068FFF7BC
:1041200047FE00EA050621790A237A222068FFF774
:104130003FFE00EA0605217900237B222068FFF775
:1041400037FE00EA05062179212378222068FFF74F
:104150002FFE00EA060521790123FF222068FFF7E0
:1041600027FE00EA05062179342323222068FFF781
:104170001FFE00EA06052179002342222068FFF78E
:1041800017FE05402179FF2344222068FFF710FE27
:1041900000EA05062179262345222068FFF708FE5C
:1041A00000EA06052179052346222068FFF700FE74
:1041B0000540402321791A462068FFF7F9FD0540A4
:1041C000217906230E222068FFF7F2FD05402179B0
:1041D0001A2320222068FFF7EBFD054021794023B8
:1041E00043222068FFF7E4FD054021790023FF22E8
:1041F0002068FFF7DDFD0540217903233422206884
:10420000FFF7D6FD05402179442335222068FFF7CA
:10421000CFFD054021790123FF222068FFF7C8FD6B
:1042200005402179042331222068FFF7C1FD0540B4
:10423000217909234B222068FFF7BAFD0540217937
:1042400005234C222068FFF7B3FD054021790423A4
:104250004D222068FFF7ACFD054021790023FF22A5
:104260002068FFF7A5FD054021790023442220683E
:10427000FFF79EFD05402179202345222068FFF7A6
:1042800097FD05402179082347222068FFF790FD1C
:1042900005402179282348222068FFF789FD054041
:1042A0002179002367222068FFF782FD05402179EC
:1042B000042370222068FFF77BFD0540217901234C
:1042C00071222068FFF774FD05402179FE237222D8
:1042D0002068FFF76DFD05402179002376222068D4
:1042E000FFF766FD05402179002377222068FFF75C
:1042F0005FFD054021790123FF222068FFF758FD6B
:104300000540217901230D222068FFF751FD05406A
:1043100021790023FF222068FFF74AFD054021791B
:10432000012380222068FFF743FD05402179F8230F
:1043300001222068FFF73CFD00EA050621790123F0
:10434000FF222068FFF734FD00EA060521790123EA
:104350008E222068FFF72CFD0540217901230022E1
:104360002068FFF725FD054021790023FF22206802
:10437000FFF71EFD05402179002380222068FFF70A
:1043800017FD284070BD00001CB5FDF729FEFEF7A3
:10439000EFFEFEF789FDFEF7FDFD5F485D494FF436
:1043A000E13500240160C0E901540C26C460C0E975
:1043B00004468461C461FEF76DFC08B172B6FEE785
:1043C0005548564948300160C0E90154C460C0E90D
:1043D00004468461C461FEF75DFC08B172B6FEE775
:1043E000FEF730FEFEF762FE20204D4D00904A4859
:1043F0002B4610221946CC30FFF74CFB4FF480407F
:104400004210009044482B461946DC30FFF742FB2F
:10441000414802272B4601221946EC300097FFF74E
:1044200039FBCDE900743C493E4FCC3180233A46FC
:1044300001F1300000F0ACFAF0B301203649CDE9CB
:1044400000040303DC312A4601F13C0000F0A0FA2D
:1044500098B331490094EC3180233A4601F1480089
:10446000019400F095FA00283DD02B4B2A15D83B3B
:10447000394603F5B470009400F0D0F80420264BC0
:104480004203D83B0090294603F5BE7000F0C6F801
:10449000214AA432A2F1140101F1280000F046F9EA
:1044A00000F0BEFA0028FBD11F4C2048267061782E
:1044B00050F82100002801E00BE00FE027D0417EFA
:1044C00000291CD0807B98B1012813D0022813D07A
:1044D00015E017A000F0BEF972B6FEE71DA000F0CF
:1044E000B9F972B6FEE724A000F0B4F972B6FEE79F
:1044F0002AA002E034A000E03EA000F0ABF9607812
:104500000321401CB0FBF1F201FB1200607072B697
:10451000FEE7000000440040000100200048004089
:10452000000C01400008014000000020FC030020B6
:1045300044697374616E63652053656E736F722096
:1045400046726F6E7420496E6974204661696C21F1
:104550000A00000044697374616E63652053656EE0
:10456000736F72204C65667420496E6974204661D1
:10457000696C210A0000000044697374616E636510
:104580002053656E736F7220526967687420496E9C
:104590006974204661696C210A00000044697374E3
:1045A000616E652053656E736F722046726F6E7414
:1045B00020526967687420476574204461746120E3
:1045C0004572726F72210A0044697374616E63658B
:1045D0002053656E736F722046726F6E74204C6547
:1045E0006674204765742044617461204572726F5F
:1045F00072210A0044697374616E63652053656EAD
:10460000736F722046726F6E742047657420446128
:104610007461204572726F72210A000030B4044642
:10462000029DE160C4E900352282294630BC18466B
:10463000FEF7AAB938B5002504462B4611B1012969
:1046400005D102E00123412501E002230125217962
:1046500001222068FFF7ACFB002827D021792B46E8
:1046600000222068FFF7A4FB00281FD000208DF84F
:10467000000021796B4613222068FFF7D0FA00284A
:1046800014D09DF800004007F3D0217901230B22BC
:104690002068FFF78DFB002808D0002321791A46F7
:1046A0002068FFF785FB002800D0012038BD2DE9E8
:1046B000F04106461F4615460C460068FFF7BAF85B
:1046C00020707068FFF7B6F82870217801B900B142
:1046D0000120387094F90000642809DC95F9001075
:1046E000642905DC6FF06302904201DB914202DA3B
:1046F0000020BDE8F0810120FBE770B50446007C96
:10470000154601280BD000280FD100212068FFF7A3
:1047100011F860680021BDE87040FFF70BB8206811
:10472000FFF708F829466068F5E770BDC0E9001298
:1047300000218160C16001740A46FFF7DEBF0B46AD
:10474000017900680122FFF733BB0000F0B587B0A4
:1047500004460020059006900390049005468DF8CD
:1047600004008DF80800009005AB02AA01A92046BC
:10477000FFF797F800285BD0002005AE009A315C67
:10478000401C114400910628F8DB21790123FF2207
:104790002068FFF70DFB0746217900234F22206890
:1047A000FFF706FB074021792C234E222068FFF7F4
:1047B000FFFA074021790023FF222068FFF7F8FA6B
:1047C00007402179B423B6222068FFF7F1FA384276
:1047D0002DD09DF8080001282CD04FF0000E0020AD
:1047E000002103AA5FF0010301EBC0072C2F1EDAA2
:1047F0009DF804C0654510D077450BDB375CCF4092
:10480000FF0707D003FA01FC175C6D1C47EA0C0791
:104810001754EDB2491C0829E6DB9DF804108D42BF
:1048200002D0401C0628DBDBC8B2854205D0002040
:1048300007B0F0BD4FF00C0ED1E7062000901346F4
:104840002179B0222068FFF78BFA0028F0D00120F0
:10485000EEE700000FB44FF4B27110B503AB084897
:10486000029AFBF707FD0648FBF724FD044982B2D4
:10487000A1F5A870FEF7D8FA10BC5DF814FB000093
:10488000500200202DE9FE432B4D044628780028D5
:1048900050D000262E708DF800608DF804608DF8E1
:1048A0000860374625A12648FBF7FEFCDFF890801C
:1048B00008F1340808E000BF48F827007F1CFFB269
:1048C0001EA10020FBF7F0FC0028F5D11C4802AB2C
:1048D00001AA69463430FFF7EAFE00282AD09DF885
:1048E0000800012708B1277400E026749DF9000034
:1048F000064600F0B9FA20F00040814668609DF954
:104900000400804600F0B0FA20F00042AA600220C5
:104910002168002E01DA087200E00F72B8F1000F72
:1049200002DC6068077201E061680872494620464F
:10493000FFF7E3FEBDE8FE83140000202000000026
:10494000B403002070B51149002301250E4C4A78AC
:104950000A2809D020280ED0A0F13006092E0AD945
:104960002D2808D08D700CE0887808B18B7070BD50
:104970000D70A35405E0A054521CD0B248703028EA
:10498000F5D34B7070BD0000B4030020140000206C
:1049900070B586B00446DDE90A05A26021601D49B4
:1049A000A381A073487840F030022271257600255B
:1049B000194A2582656142F82040401C487017481A
:1049C0000095019502950395816941F00801816187
:1049D0008069012600F008000490A089CDE9000656
:1049E000022003906946A068FDF7F2F9A189002230
:1049F000A068FDF7E2FA2046FFF72CFA38B120460E
:104A0000FFF74EFA18B16576012006B070BD6676E4
:104A10000020FAE720000020FC03002000100240E4
:104A20002DE9F041012600240A4DB0460A4F0BE063
:104A300055F8240000F012F820B955F8241000268B
:104A400081F81980641CE4B278788442F0D330464F
:104A5000BDE8F081FC030020200000207CB5044666
:104A60000179006801238022FFF7A2F90546217928
:104A70000123FF222068FFF79BF9054000232179DD
:104A80001A462068FFF794F9374A054021791378D0
:104A900091222068FFF78CF905402179012300223B
:104AA0002068FFF785F9054021790023FF2220685F
:104AB000FFF77EF905402179002380222068FFF767
:104AC00077F9284201D100207CBD21790123002201
:104AD0002068FFF76DF90028F6D000258DF800500A
:104AE00021796B4600222068FFF799F89DF80010A5
:104AF0000842F5D10028E7D08DF80450217901ABA8
:104B000013222068FFF78BF80028DDD09DF8040001
:104B10004007F3D0217904F110031E222068FFF72B
:104B200003F80028D0D0217901230B222068FFF759
:104B30003FF90028C8D0208AA0F5F851FE3903D0EB
:104B4000A0F5F851FF3902D14FF6FF70208294F999
:104B5000181080B2084400F087F9044900F0A2F868
:104B6000606101207CBD00002000002000007A442C
:104B700010B500290AD00878002807D005487844E5
:104B8000FCF746FC002801D0002010BD0248784404
:104B900010BD00007A0700007207000010B5002960
:104BA0000AD00878002807D005487844FCF730FC84
:104BB000002801D0002010BD0248784410BD00003C
:104BC0006A0700006207000090EA010F48BF81F009
:104BD000004100F17C82421A3CBF801A89184FEADA
:104BE000D0524FF07F4C1CEA410FA2EBD15318BFBB
:104BF0009CEA026F00F03B804FF0004C4CEA002032
:104C00004CEA012121FA03FC10EB0C0C1ED202F13C
:104C1000FF325FEA1C2040EBC25038BF70471CF0E7
:104C20007F0F4FEA400C18BFBCF17F4F38BF704771
:104C3000C3F12003994008BF20F00100BCF17F4F71
:104C400038BF7047A0F1C04000F035BA4FEA3C00D1
:104C5000000A40EBC25028BF1CF0FF0F4FEA400C87
:104C6000E6D018BFBCF17F4F38BF7047EAE79CEA37
:104C7000026F05D010EA5C0F08BF00F000407047DB
:104C800010B500F0D2F900BF64FBBE3E401058BF23
:104C9000C0F14040491058BFC1F140418142EFF39B
:104CA000008070474FF47F0C1CEAD0121EBF1CEA34
:104CB000D11392EA0C0F93EA0C0F00F0858090EA72
:104CC000010F48BF42F4807240F4000C41F4000030
:104CD0002CF07F4120F07F4000B58142A2EB03021F
:104CE0000FF2081CACEB504EC0F100009EF800E043
:104CF0004FEA4E0E00FB0EFC38BF49004FEA2C1C59
:104D000002F5FA020CFB0EF34FEACE1E4FEA112C0D
:104D10004FEAC1210EEB635E42EB22420EFB0CFC1C
:104D20004FEA1C5300FB03114FEA112C4FEA0131EB
:104D30000EFB0CFC4FEADC4C00FB0C11C14228BFFF
:104D400009184CEB03335DF804EB10EB410143EB26
:104D5000C250B2F57C0F38BF704729D512F0F00F62
:104D60001CBF00F1C04000F000407047008182830A
:104D70008485868788898B8C8D8E8F91929395966A
:104D800097999A9C9D9FA0A2A3A5A7A8AAACAEB0F4
:104D9000B2B3B5B7B9BCBEC0C2C5C7C9CCCED1D4F9
:104DA000D7D9DCDFE2E6E9ECF0F3F7FAFE00000029
:104DB0004FEA400C0CF1807CBCF17E4F28BF70475D
:104DC000B0F1C04000F077B990EA010F0CEAD113BE
:104DD00048BF42F48072624538BF634507D213F47E
:104DE0007F0F16D080EA010000F00040704710B538
:104DF00000F01BF9097EFC3E00F005B880EA0100D6
:104E000000F00040704780EA010000F0004000F030
:104E100052B912F47F0F04BF0248704780EA0100C4
:104E200000F049B90000C07FC10DD1F19E0206DB40
:104E30004FEA002343F0004323FA02F07047004298
:104E400007D54FEA4001B1F1FE4F02D24FF000000A
:104E5000704710B500F0E9F84992248000207047AF
:104E60006FEA20007047000010F0004148BF404248
:104E7000B0FA80F310FA03F2C3F19D030BD051EAAC
:104E8000C35101EB1220530638BF704700F10100F7
:104E900008BF20F001007047B0FA80F310FA03F267
:104EA000C3F19D030AD0D90501EB1220530638BF88
:104EB000704700F1010008BF20F0010070470000BA
:104EC00050EA010C00F113801CF5000F58BFBCF52F
:104ED000000F01D48842704707D710F5000F58BF64
:104EE00011F5000F15D488427047894270471CF5B0
:104EF000000F04D5BCF5000FF7D5814270474FF085
:104F0000807C1CEB400F38BF1CEB410F01D281426B
:104F1000704710B500F089F8922449004FF0005016
:104F20004FF08051FFF7B2BE4FF47F0C1CEAD01255
:104F30001EBF1CEAD11392EA0C0F93EA0C0F00F08B
:104F4000478090EA010F48BF42F480724FF0004C56
:104F50004CEA00204CEA012102EB0302A0FB011302
:104F6000A2F50002002918BF43F001035B0028BF2F
:104F70004FEA330342EB22425FEA132C4CEBC25060
:104F80002EBFBCEB436FB2F57C0F70474FEA036C4A
:104F9000BCF1004F08BF20F00100B2F57C0F38BF14
:104FA00070470BD582F0FF0212F5803FC8BF7047F3
:104FB00000F1C040D8BF00F00040704700F5000C81
:104FC0005FEA4C0C48BF7047B0F1C04000F073B8C6
:104FD00090EA010F0CEAD11348BF42F48072624597
:104FE00038BF634504D280EA010000F000407047FA
:104FF00010B500F01AF800BF8900013E00F007B8B4
:1050000000F009B85FEA410C5FEA1C6C08D080EA46
:10501000010000F050B85FEA400C5FEA1C6CF6D16A
:105020004FF00040A0F5800070470EF1020E2EF008
:10503000030E5EF8044B244204D44FEA4102B2F15D
:105040007F4F11D84FEA4003B3F17F4F0CD80ED1F8
:105050004FEAD07CB2F17F4F0CEB4C0C0CF1020C00
:1050600008BF4CEBD17C04E04FF0080C01E04FEAA4
:10507000D17C0CEB4C0324FA03F404F00704B4F1E4
:10508000040C06D20EEB840CBDE810404CF0010C71
:105090006047DFE80CF0070802024FF00040A0F57F
:1050A000800010BD0846420018BFD2F1807288BF50
:1050B00000F0004010BDFF2141EAD050C00570470C
:1050C00090EA010F48BF81F000413FF584AD421ADC
:1050D00004D882F00042A0EB020011444FEAD05203
:1050E0004FF07F4C1CEA410FA2EBD15318BF9CEA52
:1050F000026F4AD04FF0004C4CEA00204CEA0121EC
:1051000021FA03FCB0EB0C0C0FD412F0FE0F36D0DA
:105110005FEA4C001DD5001240EBC25038BF70470B
:105120001CF03F0F18BF70470BE0A2F101025FEACD
:105130001C2040EBC25038BF70471CF07F0F18BFD7
:105140007047C3F12003994014BF401E20F00100B6
:10515000704780084FEA122308BF7047B0FA80FCFE
:10516000A2EB0C02CCF1280C60FA0CF093EA122F9F
:1051700004BF00EBC25070474FEAC3707047130A78
:105180005FEADC1008BF7047F6E79CEA026F04D0C4
:1051900010EA5C0F08BF0020704710B5FFF745FF0D
:1051A00040DFF63E81F000407047FBF720BDFBF783
:1051B00055BE010202030405060708090A0B0C0D7F
:1051C0000E0F101000000000000000000102030498
:1051D00006070809000000000102030400000000A7
:1051E000000000003031323334353637383941422F
:1051F0004344454640305800303132333435363739
:1052000038396162636465664030780004000008E4
:1052100000000000000000020001000010303132E8
:1052200033343536373839616263646566787000C7
:1052300030313233343536373839414243444546CC
:105240005850000002400000000000A000000000D4
:1052500005400000000000C8000000000C400000F5
:105260000000409C00000000194000000020BCBE6F
:105270000000000034400000BFC91B8E0000000485
:10528000B5400000504BCFD06607E2CF01000000D0
:105290006C4100003E8251AADFEEA73401000000FD
:1052A000D9420000DCB5A0E23A301F97FFFFFFFFB4
:1052B000B4450000FD25A0C8E9A3C14FFFFFFFFFD3
:1052C000FF3F00000000008000000000FF3F0000E2
:1052D00000000080000000002454000800000020AE
:1052E00028000000280100084C5400082800002075
:1052F000400A0000440100081C00000043000000B8
:10530000F8FFFFFF0C0000000E0000000F0000007F
:105310002E0000001001000043000000F8FFFFFF16
:1053200000404040404040404040414141414140B8
:10533000404040404040404040404040404040406D
:1053400040050202020202020202020202020202FC
:105350000220202020202020202020020202020201
:105360000202909090909090101010101010101059
:105370001010101010101010101010100202020265
:1053800002028888888888880808080808080808A9
:1053900008080808080808080808080802020202A5
:1053A00040000000000000000000000000000000BD
:1053B00000000000000000000000000000000000ED
:1053C00000000000000000000000000000000000DD
:1053D00000000000000000000000000000000000CD
:1053E00000000000000000000000000000000000BD
:1053F00000000000000000000000000000000000AD
:10540000000000000000000000000000000000009C
:10541000000000000000000000000000000000008C
:10542000000000000000000001000000100000006B
:105430000000000000127A000000000000000000E0
:0C54400000000000000000000000000060
:04000005080000ED02
:00000001FF
