:020000040800F2
:10000000980700208901000847140008F71200082B
:10001000451400085B030008F51800080000000004
:100020000000000000000000000000009B14000819
:100030005D03000800000000991400089D140008EA
:10004000A3010008A3010008A3010008A301000800
:10005000A3010008A3010008A3010008A3010008F0
:10006000A3010008A3010008A3010008A3010008E0
:10007000A3010008A3010008A3010008A3010008D0
:10008000A3010008A3010008A3010008A3010008C0
:10009000A3010008A3010008A3010008A3010008B0
:1000A000A3010008A3010008A3010008A3010008A0
:1000B000A3010008A3010008A3010008A301000890
:1000C000A3010008A3010008A3010008A301000880
:1000D000A3010008A3010008E9180008A301000813
:1000E000A3010008A3010008A301000800F002F822
:1000F00000F03AF80AA090E8000C82448344AAF188
:100100000107DA4501D100F02FF8AFF2090EBAE885
:100110000F0013F0010F18BFFB1A43F0010318473B
:1001200088200000A8200000103A24BF78C878C1B9
:10013000FAD8520724BF30C830C144BF04680C60ED
:10014000704700000023002400250026103A28BF35
:1001500078C1FBD8520728BF30C148BF0B60704739
:100160001FB51FBD10B510BD00F0BEF81146FFF75A
:10017000F7FF01F033FC00F0DCF803B4FFF7F2FF07
:1001800003BC00F0E3F80000094880470948004735
:10019000FEE7FEE7FEE7FEE7FEE7FEE7FEE7FEE737
:1001A000FEE7FEE704480549054A064B7047000094
:1001B000FF140008ED0000089801002098070020B7
:1001C0009803002098030020014A00F04DB8000079
:1001D0002000002010B5431C02E010F8011B71B193
:1001E0008107FAD14FF0013202C88C1A8C4314EA0D
:1001F000C211F9D0C01A0A0603D0C01E10BDC01A21
:1002000010BD0A0401D0801E10BD0902FCD0401EA2
:1002100010BD4FF0000200B51346944696462039B3
:1002200022BFA0E80C50A0E80C50B1F12001BFF4AF
:10023000F7AF090728BFA0E80C5048BF0CC05DF815
:1002400004EB890028BF40F8042B08BF704748BF63
:1002500020F8022B11F0804F18BF00F8012B7047D7
:1002600070477047704700002DE9F04115460E4673
:10027000040002D12C6804B90BA4204600F026F833
:100280000444207870B127463146384600F00EF815
:100290000444207810B1002004F8010B38462C608B
:1002A000BDE8F0810027F9E70000000030B5034603
:1002B0001D781DB10A4603E0AC4201D1181A30BDC9
:1002C00012F8014B002CF7D15B1CF1E730B5034667
:1002D0001D783DB10A4612F8014B1CB1AC42FAD16F
:1002E0005B1CF5E7181A30BD754600F02BF8AE46DA
:1002F00005006946534620F00700854618B020B532
:10030000FFF750FFBDE820404FF000064FF0000718
:100310004FF000084FF0000B21F00701AC46ACE8AD
:10032000C009ACE8C009ACE8C009ACE8C0098D461A
:10033000704710B50446AFF300802046BDE810407A
:10034000FFF71BBF00487047380100200149182003
:10035000ABBEFEE7260002007047FEE7704710B50F
:1003600090F821100022022905D00421816380F831
:100370002020012010BD01680B6823F00E030B60E4
:1003800001680B6823F001030B6090F84030C46BE8
:10039000012101FA03F3636080F8211080F8202026
:1003A000104610BD10B590F821100024022903D08A
:1003B0000421816301243DE001680A6822F00E02F5
:1003C0000A6001680A6822F001020A601A4A01689C
:1003D000914201D1012121E0174A1432914201D109
:1003E00010211BE0144A2832914201D1891515E0F1
:1003F000114A3C32914201D189140FE00E4A503229
:10040000914202D14FF4803108E00B4A64329142AC
:1004100002D14FF4801101E04FF08071064A083A92
:100420005160012180F82110002180F82010416BDB
:1004300001B18847204610BD080002402DE9F84F61
:10044000DFF8B8910024A9F1040B23460F2709F126
:10045000040AABF1040EC9E00125A5402A40AA42D6
:100460007DD1674ED1F804C0ACEB0608B44532D05C
:1004700014DCBCF1030F3AD009DCBCF1000F2AD028
:10048000BCF1010F1CD0BCF1020F31D11DE0BCF159
:10049000110F17D0BCF1120F2AD119E0B8F5881F3F
:1004A00019D006DCB8F5803F15D0B8F5801F1FD1F4
:1004B00011E0B8F5001F0ED0B8F5041F18D10AE0FE
:1004C000CB6815E0CB681B1D12E0CB6808330FE04A
:1004D000CB680C330CE08B682BB1012B4FF0080379
:1004E00003D0456104E0042302E0056100E000233D
:1004F000FF2A01D8064601E000F104064FEA840510
:1005000001D9A5F12005D6F8008007FA05FC28EAF4
:100510000C0803FA05F548EA0508C6F800804D689E
:10052000ED0062D5374DAE6946F00106AE61AD69AA
:1005300024F0030605F001050095334D06EB050C8C
:10054000DCF80850A607360F07FA06F825EA080572
:10055000DFF8B880404503D14FF0000817E044E0D1
:10056000DFF8AC80404502D14FF001080FE0DFF822
:10057000A480404502D14FF0020808E0DFF89880DF
:10058000404502D14FF0030801E04FF0040808FA9B
:1005900006F848EA0508CCF808804D68D9F80060EC
:1005A000ED024D4601D5164300E096432E604D689E
:1005B000DAF80060AD02554601D5164300E09643D7
:1005C0002E604D68DBF80060AD035D4601D5164333
:1005D00000E096432E604D68DEF80060ED0375463E
:1005E00001D5164300E096432E60641C0D682A4630
:1005F000E5407FF431AFBDE8F88F0000080401400A
:1006000000001110001002400000014000080140ED
:10061000000C014000100140001401400AB10161CA
:1006200070470904FBE7000001488068704700003C
:1006300004000020024881680278114481607047FC
:1006400004000020074810B5016841F01001016066
:10065000032000F075F80F2000F006F800F024F8F1
:10066000002010BD0020024070B50D4D04464FF42F
:100670007A712878B1FBF0F00A490968B1FBF0F013
:1006800000F0DCFA48B9102C07D200222146501E97
:1006900000F036F800206C6070BD012070BD0000D5
:1006A00004000020100000200C4808B5816941F0CA
:1006B00001018161816901F001010091C16941F08D
:1006C0008051C161C06900F08050009004484168C9
:1006D00021F0E06141F00071416008BD001002406E
:1006E00000000140002809DB00F01F0201219140B9
:1006F0004009800000F1E020C0F8001170470000C0
:10070000F0B40E4B1B680C46C3F30223C3F107057C
:10071000042D00D90425191D072901D2002300E06A
:10072000DB1E012606FA05F1491E214099409E4034
:10073000761E16403143F0BC01F0DDB80CED00E050
:10074000064900F0070208684FF6FF03184040EA28
:100750000220034A10430860704700000CED00E0DF
:100760000000FA052DE9F0470F46050061D0434E21
:10077000306800F00700B84209D2306820F0070066
:1007800038433060306800F00700B84251D1286823
:100790003B4C810712D5400703D5606840F4E06008
:1007A00060602878000703D5606840F4605060609E
:1007B0006068A96820F0F000084360602878C007EE
:1007C00028D06868012810D02168022810D0890735
:1007D00000292EDA616821F0030101436160FFF70F
:1007E00023FF804641F288390DE021688903EFE755
:1007F0008901EDE7FFF718FFA0EB0801494502D991
:100800000320BDE8F0876068696800F00C00B0EB79
:10081000810FEFD1306800F00700B8420BD9306883
:1008200020F0070038433060306800F00700B8421D
:1008300001D00120E5E72878400705D56068E96820
:1008400020F4E060084360602878000706D56068FF
:10085000296920F4605040EAC100606000F038F877
:100860006168084AC1F30311515CC8400649086039
:1008700006480068FFF7F8FE0020C2E700200240AB
:100880000010024090210008100000200800002005
:100890000448054900684968044AC1F30221515CD3
:1008A000C84070471000002000100240A02100083E
:1008B0000448054900684968044AC1F3C221515CF3
:1008C000C84070471000002000100240A02100081E
:1008D0000E4A51680E4801F00C03042B11D0082B6E
:1008E0000FD10C48C1F38343C903C05C0AD55168DA
:1008F000084AC1F34041921E515C054A5043B0FB87
:10090000F1F070470449484370470000001002406E
:1009100000127A008021000800093D002DE9F84FFF
:10092000040070D02078C04DC00749D06868C0F37B
:100930008100012807D06868C0F38100022809D12E
:100940006868C00306D52868800339D56068002828
:10095000E7D035E06068B0F5803F0BD010B1B0F55E
:10096000A02F11D0286820F480302860286820F457
:10097000802002E0286840F480302860606890B1F0
:10098000FFF752FE06460AE0286840F480202860FF
:10099000F0E700BFFFF748FE801B642873D8286883
:1009A0008003F7D50CE0FFF73FFE064605E000BFE9
:1009B000FFF73AFE801B6428F0D828688003F7D43C
:1009C00020789A4E80074FF001094FF0000839D582
:1009D000686810F00C0F07D06868C0F38100022827
:1009E00009D16868C00306D42868800714D5206937
:1009F000012808D110E02069B0B1C6F80090FFF7D7
:100A000013FE074605E00AE1FFF70EFEC01B0228B1
:100A1000C4D828688007F7D52868616920F0F800F5
:100A200040EAC10028600DE0C6F80080FFF7FCFD39
:100A3000074604E0FFF7F8FDC01B022823D828680A
:100A40008007F7D4207800072CD57948A169D9B15F
:100A5000C0F80090FFF7E8FD074604E0FFF7E4FD6B
:100A6000C01B02280FD8686A8007F7D571484FF479
:100A7000FA510068B0FBF1F0009000BF0098411EF1
:100A80000091FAD20EE080E0C0F80080FFF7CCFDC4
:100A9000074604E0FFF7C8FDC01B022875D8686A46
:100AA0008007F7D42078400760D5E8690027C000A8
:100AB00008D4E86940F08050E861E869012700F057
:100AC000805000905C480168C90513D401688346D2
:100AD00041F480710160FFF7A7FD824606E000BF88
:100AE000FFF7A2FDA0EB0A0064284ED8DBF8000057
:100AF000C005F5D5E06801280AD008B1052813D053
:100B0000286A20F001002862286A20F0040002E030
:100B1000286A40F001002862E06841F2883B98B101
:100B2000FFF782FD82460BE0286A40F0040028624D
:100B3000EEE700BFFFF778FDA0EB0A0159455AD850
:100B4000286A8007F6D50CE0FFF76EFD824605E0C7
:100B5000FFF76AFDA0EB0A0159454CD8286A8007C7
:100B6000F6D41FB1E86920F08050E861E06988B3ED
:100B70006968C1F38101022944D00228C6F8608067
:100B800004D0FFF751FD044638E034E0FFF74CFD98
:100B9000074604E0FFF748FDC01B02282BD8286851
:100BA0008001F7D4206AB0F5803F05D16868A1685C
:100BB00020F4003008436860D4E9080108436968FC
:100BC00021F4741108436860C6F86090FFF72CFDAB
:100BD000044606E025E000BFFFF726FD001B0228C3
:100BE00009D828688001F7D51BE000BFFFF71CFD7E
:100BF000001B022802D90320BDE8F88F2868800175
:100C0000F4D40EE00128F7D06868226A00F480313D
:100C1000914204D1616A00F47010884201D0012031
:100C2000EAE70020E8E7000000100240000042422E
:100C300080044242100000200070004010B5401EA9
:100C4000B0F1807F01D3012010BD4FF0E02460613E
:100C50000F21601700F04FFE0020A06107202061E7
:100C6000002010BD10B590F83C20012A22D00122AE
:100C700080F83C20CA688C6822F4407222434C6899
:100C800022F4806222430C6822F4006222430C6941
:100C900022F4805222434C6922F400522243C96953
:100CA000002322F480420A4301684A6480F83C3001
:100CB000002010BD022010BD70B590F83C20012A24
:100CC00026D0012480F83C40022280F83D200368B1
:100CD0005A689D6822F070060A6832435A600D4BCC
:100CE00002689A4208D0B2F1804F05D00A4B9A426E
:100CF00002D00A4B9A4204D1496825F08003194377
:100D0000916080F83D40002180F83C10084670BD9D
:100D1000022070BD002C014000040040000800408B
:100D200000B585B000210091019102910391006806
:100D30000B49884212D10B48816941F0040181615D
:100D40008069694600F0040004904FF44070009000
:100D50000220019003900448FFF770FB05B000BD2E
:100D6000002C0140001002400008014070B504460C
:100D700090F83C0000260D4601280FD0012084F891
:100D80003C006AB1042A1DD0082A2FD00C2A3FD07B
:100D90000126002084F83C00304670BD022070BD62
:100DA000206800F0F7FB2068816941F0080181614B
:100DB0002068816921F004018161206881692A69C4
:100DC000114311E0206800F00DFC2068816941F4B6
:100DD000006181612068816921F4806181612068FE
:100DE00081692A6941EA02218161D2E7206800F025
:100DF00025FC2068C16941F00801C1612068C16912
:100E000021F00401C1612068C1692A69114311E020
:100E1000206800F03FFC2068C16941F40061C161B5
:100E20002068C16921F48061C1612068C1692A69B3
:100E300041EA0221C161ACE710B5040003D094F887
:100E40003D0010B107E0012010BD002084F83C00F7
:100E5000204600F01FF8022084F83D00211D206884
:100E600000F04EFB012084F8460084F83E0084F830
:100E70003F0084F8400084F8410084F8420084F880
:100E8000430084F8440084F8450084F83D000020C5
:100E900010BD000008B500680649884208D1064820
:100EA000816941F400618161806900F40060009013
:100EB00008BD0000002C01400010024010B504469F
:100EC000022249B104290ED0082913D094F8410018
:100ED000012816D0012010BD94F83E000128F9D158
:100EE00084F83E200FE094F83F000128F2D184F806
:100EF0003F2008E094F840000128EBD184F840201E
:100F000001E084F841200122206800F035FB0F4900
:100F10002068884203D1426C42F400424264206857
:100F2000884208D0B0F1804F05D00949884202D0EC
:100F30000849884204D1816801F00701062903D0DD
:100F4000016841F001010160002010BD002C01404A
:100F5000000400400008004070477047F8B5016881
:100F600004460868CA684B6910F00F0F4FF000057F
:100F700059D003F0010602F49077374365D0C107DA
:100F800005D0D10503D5616C41F0010161644107D1
:100F900005D5D90703D0616C41F002016164810776
:100FA00005D5D90703D0616C41F0040161640107E4
:100FB00007D502F02001314303D0616C41F00801F4
:100FC0006164616C00293AD0800604D5900602D590
:100FD000204600F0B0FB20684069616CC0F38010CF
:100FE000090700D460B3204600F07EFB206840690A
:100FF000400621D52068143050E8001F21F0400140
:1010000040E80012002AF5D1E06BA8B16D494163B8
:10101000E06BFFF7C7F9002811D0E06B416B01B01E
:10102000BDE8F040084783060FD593060DD520464E
:10103000BDE8F84000F07FBB2046FFF78EFFF8BD0B
:101040002046FFF78AFF6564F8BD266B2023012E3A
:101050007CD1C6067AD5D60678D50868486800904F
:1010600048694FF00206400640D5E16B08684068C9
:101070000004000CE8D0A28D8242E5D9E0858869A1
:1010800020282DD020680C3050E8001F21F48071FA
:1010900040E80012002AF5D12068143050E8001F03
:1010A00021F0010140E80012002AF5D12068143037
:1010B00050E8001F21F0400140E80012002AF5D15D
:1010C00084F84230256320680C3050E8001F21F07E
:1010D000100140E80012002AF5D1E06BFFF73FF95C
:1010E0006663A08DE18D401A81B22AE0A08DE18D6A
:1010F000401A81B2E08D0028A6D00029A4D0226831
:101100000C3252E8000F20F4907042E80007002FE4
:10111000F5D12068143050E8002F22F0010240E899
:101120000027002FF5D184F84230256320680C3069
:1011300050E8002F22F0100240E80023002BF5D1E8
:1011400066632046FFF708FFF8BDFFE705062BD5CD
:10115000150629D594F841002128F5D1A068B0F5ED
:10116000805F01D12069B0B1206A411C21622168F1
:1011700000784860E08C401E0004000CE084E3D15D
:101180002068C16821F08001C1602068C16841F019
:101190004001C160D8E7206A0088C0F308004860B9
:1011A000206A801C2062E5E74006CDD55006CBD5ED
:1011B000CA68204622F04002CA6084F8413000F03C
:1011C00099F8C1E7D916000870B5040004D094F866
:1011D0004100002510B106E0012070BD84F84050A8
:1011E000204600F023F8242084F841002068C168DC
:1011F00021F40051C160204600F0FEFA2068016928
:1012000021F4904101612068416921F02A01416186
:101210002068C16841F40051C1606564202084F8F1
:10122000410084F842006563002070BD30B585B090
:1012300000240094019402940394006818498842A1
:101240002BD11848C16941F40031C161C16901F471
:1012500000310491816941F0040181618069124D7E
:1012600000F004000490042000900220019003206C
:10127000039069462846FFF7E1F80820CDE900040D
:10128000694628460294FFF7D9F80022012126205A
:10129000FFF736FA2620FFF725FA05B030BD00002B
:1012A00000440040001002400008014090F8423025
:1012B000202B01D00220704721B11AB10023036313
:1012C00000F0F6BA0120704710B5044600680749DF
:1012D00088420AD10648007800F07AFC2046BDE832
:1012E000104001220249FFF7E1BF10BD0044004059
:1012F000000000207047FEE72DE9F04385B0002490
:1013000021480094019402940394816941F02001E2
:101310008161816901F020010491816941F004013A
:101320008161816901F004010491816941F0080142
:1013300081618069DFF8548000F008004FF40045B7
:101340000490002229464046FFF768F9DFF84090F4
:101350006F11002239464846FFF760F900950226D2
:1013600001250396CDE9015469464046FFF766F82A
:1013700000970396CDE9015469464846FFF75EF8A9
:1013800005B0BDE8F083000000100240000C0140F1
:101390000008014010B592B000240F941C2168464B
:1013A0001094FEF736FF202107A8FEF732FF2448ED
:1013B0002249C0E900144FF6FF71C0E902410461FF
:1013C00044618461FFF738FD08B172B6FEE70F94FF
:1013D0000FA91B481094FFF76FFC08B172B6FEE727
:1013E0006020CDE900040294039404940594002243
:1013F000694613480694FFF7B9FC08B172B6FEE7D8
:10140000042269460E48FFF7B1FC08B172B6FEE748
:101410000794089409944FF400500A94CDE90B40C6
:1014200007A907480E94FFF71DFC08B172B6FEE746
:101430000348FFF775FC12B010BD0000002C0140FE
:1014400024000020FEE7FEE72DE9F0410546006894
:101450000F460468E06A00F03DFD06460D49384637
:1014600000F03EFC314600F049FD00F0FBFC6968ED
:1014700080B2012908D0022908D0032908D0042904
:1014800000D12064BDE8F0816063FBE7A063F9E769
:10149000E063F7E70000C84270477047FFF7CAB83B
:1014A00030B58FB028216846FEF7B3FE14210AA894
:1014B000FEF7AFFE01210804CDE9001000240294DC
:1014C00002250491CDE907504FF4E01009906846D9
:1014D000FFF724FA08B172B6FEE70F20CDE90A053E
:1014E0004FF48060CDE90C4002210AA80E94FFF76A
:1014F00039F9002801D072B6FEE70FB030BD704751
:10150000F0B50268194B1A4C1A4D4FF080479842BB
:1015100005D0B84203D0A04201D0A84203D122F0A6
:1015200070064A683243984205D0B84203D0A042C0
:1015300001D0A84203D122F44074CA6822434C6906
:1015400022F08002224302608A68C2620A688262D4
:10155000984201D109690163012141610169C9070B
:1015600003D0016921F001010161F0BD002C0140AF
:10157000000400400008004010B501F01F030121E5
:10158000046A99408C430462016A9A4011430162E3
:1015900010BD000030B5036A026A22F00102026247
:1015A0004268846924F073050C682C4323F002051B
:1015B0008B682B430A4DA8420BD123F00805CB685A
:1015C00022F440722B434D6923F0040315438A69CA
:1015D0002A434260846149684163036230BD000070
:1015E000002C014030B5026A036A23F01003036245
:1015F000436884690D6824F4E64444EA05248D6850
:1016000022F0200242EA05120B4DA8420ED1CD680D
:1016100022F0800242EA05124D6923F4406343EA56
:1016200085038D6922F0400243EA850343608461AB
:1016300049688163026230BD002C014030B5036A05
:10164000026A22F4807202624268C46923F4007361
:1016500024F073050C682C438D6843EA05230C4D78
:10166000A8420ED1CD6823F4006343EA05234D69F7
:1016700022F4405242EA05128D6923F4806342EA63
:1016800005124260C4614968C163036230BD000055
:10169000002C014030B5046A026A22F480520262D2
:1016A0004268C3690D6823F4E64343EA05238D6865
:1016B00024F4005444EA0534064DA84204D14D698F
:1016C00022F4804242EA85124260C36149680164A3
:1016D000046230BD002C014010B5406A0021C18574
:1016E000C184FFF73AFC10BD01680C3151E8002FAE
:1016F00022F4907241E80023002BF5D101681431E7
:1017000051E8002F22F0010241E80023002BF5D11F
:10171000016B012909D101680C3151E8002F22F039
:10172000100241E80023002BF5D1202180F842105F
:1017300000210163704708B590F84210222901D0BA
:10174000022008BD82684FF480539A4201D101699A
:1017500021B1816A9A421BD04AB10AE00268816ACB
:101760005268C2F308020A80816A891C08E0026993
:1017700072B10268526802F07F020A70816A491CE5
:101780008162C18D491E0904090CC18503D01BE08B
:1017900002685268F1E70168CA6822F02002CA6054
:1017A0000168CA6822F48072CA6001684A6922F03E
:1017B00001024A61202180F8421000214163026B3E
:1017C000012A03D0FFF780FD002008BD01630168F6
:1017D0000C3151E8002F22F0100241E80023002BC9
:1017E000F5D101680A68D20602D50A6849680091F5
:1017F000818DFFF7B1FBE7E770B50446006801692A
:10180000E26821F44051114301612169A068084355
:10181000616908432168CA6841F20C639A43024334
:10182000CA6020684169A26921F440711143416195
:101830001E492068884202D1FFF73AF801E0FFF71D
:1018400027F800EBC00101EB001260686421800002
:10185000B2FBF0F3B3FBF1F36FF018067343B2FB86
:10186000F0F5B2FBF0F605EB8305322303EB05152B
:10187000B5FBF1F5B6FBF1F605F0F00505EB061545
:10188000B2FBF0F6B2FBF0F0B0FBF1F06FF0180233
:10189000504306EB800003EB0010B0FBF1F0216831
:1018A00000F00F002844886070BD0000003801403F
:1018B00081628285C28500214164222180F8421024
:1018C000016921B10168CA6842F48072CA60016886
:1018D0004A6942F001024A610068C16841F0200192
:1018E000C1600020704700000148FFF737BB0000CF
:1018F0006C000020FEE70907090E002804DB00F158
:10190000E02080F80014704700F00F0000F1E020A4
:1019100080F8141D7047000070B50446007A0D462B
:1019200090B1012817D002281CD1218A0122E06839
:10193000FEF774FE29460C4800F0ACFB0146204639
:10194000BDE87040FFF780BD218A0022E068FEF705
:1019500065FE0021F3E7218A0022E068FEF75EFEC3
:101960002946ECE770BD00000000C8422DE9F041B7
:1019700007004FF0FF3813D0002635463446FEF7F7
:1019800029FC10F0FF020BD000206FF02F0319E0AC
:10199000395C2D2907D0A1F1300CBCF10A0F09D315
:1019A0004046BDE8F08155EA0001F9D101266D1CE1
:1019B000EDB205E004EB840403EB440421440CB2D3
:1019C000401CC0B29042E3D3642C01DD7820E8E7EC
:1019D0000EB1604204B260B2E3E7000008B5FEF762
:1019E00031FEFFF75DFDFFF787FCFFF7D3FC1B48D7
:1019F0001949002401604FF4E131C0E901140C21C0
:101A0000C460C0E904418461C461FFF7DDFB08B133
:101A100072B6FEE7114B4FF48062483B104903F168
:101A20009000009400F020F804200C4B4203483B47
:101A300000900C4903F1A40000F016F8074A5C324C
:101A4000A2F1140101F1280000F059F803487030A8
:101A500000F05EF8FAE70000004400406C0000204F
:101A600000080140000C014030B40446029DE160D2
:101A7000C4E900352282294630BC1846FFF71EBA59
:101A80002DE9F04106461F4615460C460068FFF753
:101A90006DFF20707068FFF769FF2870217801B929
:101AA00000B10120387094F90000642809DC95F930
:101AB0000010642905DC6FF06302904201DB914263
:101AC00002DA0020BDE8F0810120FBE770B5044692
:101AD000007C154601280BD000280FD1002120687A
:101AE000FFF71AFF60680021BDE87040FFF714BFE0
:101AF0002068FFF711FF29466068F5E770BDC0E96F
:101B0000001200218160C16001740A46FFF7DEBF48
:101B10002DE9FE432B4D04462878002850D000269E
:101B20002E708DF800608DF804608DF808603746DF
:101B300025A12648FEF748FBDFF8908008F134081D
:101B400008E000BF48F827007F1CFFB21EA100205C
:101B5000FEF73AFB0028F5D11C4802AB01AA694602
:101B60003430FFF78DFF00282AD09DF808000127A8
:101B700008B1277400E026749DF90000064600F0C5
:101B800091F920F00040814668609DF9040080468C
:101B900000F088F920F00042AA6002202168002E9F
:101BA00001DA087200E00F72B8F1000F02DC606821
:101BB000077201E06168087249462046FFF786FF18
:101BC000BDE8FE831400002020000000F00000208B
:101BD00070B51149002301250E4C4A780A2809D016
:101BE00020280ED0A0F13006092E0AD92D2808D0C1
:101BF0008D700CE0887808B18B7070BD0D70A354A7
:101C000005E0A054521CD0B248703028F5D34B7078
:101C100070BD0000F00000201400002090EA010FC9
:101C200048BF81F0004100F13C82421A3CBF801A5B
:101C300089184FEAD0524FF07F4C1CEA410FA2EBBB
:101C4000D15318BF9CEA026F00F03B804FF0004C6C
:101C50004CEA00204CEA012121FA03FC10EB0C0CA9
:101C60001ED202F1FF325FEA1C2040EBC25038BFA7
:101C700070471CF07F0F4FEA400C18BFBCF17F4F3C
:101C800038BF7047C3F12003994008BF20F001001E
:101C9000BCF17F4F38BF7047A0F1C04000F0F5B9EC
:101CA0004FEA3C00000A40EBC25028BF1CF0FF0F77
:101CB0004FEA400CE6D018BFBCF17F4F38BF7047E9
:101CC000EAE79CEA026F05D010EA5C0F08BF00F05B
:101CD0000040704710B500F092F900BF64FBBE3EB3
:101CE0004FF47F0C1CEAD0121EBF1CEAD11392EAFB
:101CF0000C0F93EA0C0F00F0858090EA010F48BFAB
:101D000042F4807240F4000C41F400002CF07F415A
:101D100020F07F4000B58142A2EB03020FF2081CC5
:101D2000ACEB504EC0F100009EF800E04FEA4E0EC2
:101D300000FB0EFC38BF49004FEA2C1C02F5FA02EA
:101D40000CFB0EF34FEACE1E4FEA112C4FEAC121D5
:101D50000EEB635E42EB22420EFB0CFC4FEA1C537F
:101D600000FB03114FEA112C4FEA01310EFB0CFC72
:101D70004FEADC4C00FB0C11C14228BF09184CEBA8
:101D800003335DF804EB10EB410143EBC250B2F5B5
:101D90007C0F38BF704729D512F0F00F1CBF00F13F
:101DA000C04000F0004070470081828384858687B0
:101DB00088898B8C8D8E8F919293959697999A9C0A
:101DC0009D9FA0A2A3A5A7A8AAACAEB0B2B3B5B779
:101DD000B9BCBEC0C2C5C7C9CCCED1D4D7D9DCDF4F
:101DE000E2E6E9ECF0F3F7FAFE0000004FEA400CFF
:101DF0000CF1807CBCF17E4F28BF7047B0F1C04031
:101E000000F043B990EA010F0CEAD11348BF42F445
:101E10008072624538BF634507D213F47F0F16D036
:101E200080EA010000F00040704710B500F0E7F8CC
:101E3000097EFC3E00F005B880EA010000F0004099
:101E4000704780EA010000F0004000F01EB912F473
:101E50007F0F04BF0248704780EA010000F015B907
:101E60000000C07FC10DD1F19E0206DB4FEA0023C6
:101E700043F0004323FA02F07047004207D54FEACF
:101E80004001B1F1FE4F02D24FF00000704710B593
:101E900000F0B5F849922480002070476FEA2000D6
:101EA0007047000010F0004148BF4042B0FA80F394
:101EB00010FA03F2C3F19D030BD051EAC35101EBB9
:101EC0001220530638BF704700F1010008BF20F010
:101ED00001007047B0FA80F310FA03F2C3F19D03DA
:101EE0000AD0D90501EB1220530638BF704700F124
:101EF000010008BF20F00100704700004FF47F0C84
:101F00001CEAD0121EBF1CEAD11392EA0C0F93EA0E
:101F10000C0F00F0478090EA010F48BF42F4807236
:101F20004FF0004C4CEA00204CEA012102EB030286
:101F3000A0FB0113A2F50002002918BF43F0010322
:101F40005B0028BF4FEA330342EB22425FEA132CC7
:101F50004CEBC2502EBFBCEB436FB2F57C0F704709
:101F60004FEA036CBCF1004F08BF20F00100B2F54E
:101F70007C0F38BF70470BD582F0FF0212F5803F0F
:101F8000C8BF704700F1C040D8BF00F000407047A4
:101F900000F5000C5FEA4C0C48BF7047B0F1C04040
:101FA00000F073B890EA010F0CEAD11348BF42F475
:101FB0008072624538BF634504D280EA010000F0B8
:101FC0000040704710B500F01AF800BF8900013ECC
:101FD00000F007B800F009B85FEA410C5FEA1C6C3A
:101FE00008D080EA010000F050B85FEA400C5FEAD8
:101FF0001C6CF6D14FF00040A0F5800070470EF148
:10200000020E2EF0030E5EF8044B244204D44FEA75
:102010004102B2F17F4F11D84FEA4003B3F17F4F35
:102020000CD80ED14FEAD07CB2F17F4F0CEB4C0CA8
:102030000CF1020C08BF4CEBD17C04E04FF0080C13
:1020400001E04FEAD17C0CEB4C0324FA03F404F0DA
:102050000704B4F1040C06D20EEB840CBDE810406A
:102060004CF0010C6047DFE80CF0070802024FF06B
:102070000040A0F5800010BD0846420018BFD2F114
:10208000807288BF00F0004010BDFF2141EAD050AF
:10209000C005704790EA010F48BF81F000413FF54D
:1020A000C4AD421A04D882F00042A0EB02001144F1
:1020B0004FEAD0524FF07F4C1CEA410FA2EBD153B4
:1020C00018BF9CEA026F4AD04FF0004C4CEA002047
:1020D0004CEA012121FA03FCB0EB0C0C0FD412F0F6
:1020E000FE0F36D05FEA4C001DD5001240EBC25007
:1020F00038BF70471CF03F0F18BF70470BE0A2F1CC
:1021000001025FEA1C2040EBC25038BF70471CF050
:102110007F0F18BF7047C3F12003994014BF401EC2
:1021200020F00100704780084FEA122308BF704773
:10213000B0FA80FCA2EB0C02CCF1280C60FA0CF097
:1021400093EA122F04BF00EBC25070474FEAC370EE
:102150007047130A5FEADC1008BF7047F6E79CEA95
:10216000026F04D010EA5C0F08BF0020704710B562
:10217000FFF745FF40DFF63E81F000407047010267
:1021800002030405060708090A0B0C0D0E0F1010B8
:102190000000000000000000010203040607080917
:1021A0000000000001020304C82100080000002014
:1021B0002400000028010008EC2100082400002071
:1021C0007407000044010008000000000100000046
:1021D000100000000000000000127A000000000063
:0C21E000000000000000000000000000F3
:04000005080000ED02
:00000001FF
